{
  "_format": "hh-sol-artifact-1",
  "contractName": "wNFT",
  "sourceName": "contracts/wNFT.sol",
  "abi": [
    {
      "inputs": [
        {
          "internalType": "uint256",
          "name": "_serviceFeeRatio",
          "type": "uint256"
        }
      ],
      "stateMutability": "nonpayable",
      "type": "constructor"
    },
    {
      "anonymous": false,
      "inputs": [
        {
          "indexed": true,
          "internalType": "address",
          "name": "owner",
          "type": "address"
        },
        {
          "indexed": true,
          "internalType": "address",
          "name": "approved",
          "type": "address"
        },
        {
          "indexed": true,
          "internalType": "uint256",
          "name": "tokenId",
          "type": "uint256"
        }
      ],
      "name": "Approval",
      "type": "event"
    },
    {
      "anonymous": false,
      "inputs": [
        {
          "indexed": true,
          "internalType": "address",
          "name": "owner",
          "type": "address"
        },
        {
          "indexed": true,
          "internalType": "address",
          "name": "operator",
          "type": "address"
        },
        {
          "indexed": false,
          "internalType": "bool",
          "name": "approved",
          "type": "bool"
        }
      ],
      "name": "ApprovalForAll",
      "type": "event"
    },
    {
      "anonymous": false,
      "inputs": [
        {
          "indexed": false,
          "internalType": "address",
          "name": "owner",
          "type": "address"
        },
        {
          "indexed": false,
          "internalType": "uint256",
          "name": "amount",
          "type": "uint256"
        }
      ],
      "name": "OwnerBalanceWithdrawn",
      "type": "event"
    },
    {
      "anonymous": false,
      "inputs": [
        {
          "indexed": true,
          "internalType": "address",
          "name": "previousOwner",
          "type": "address"
        },
        {
          "indexed": true,
          "internalType": "address",
          "name": "newOwner",
          "type": "address"
        }
      ],
      "name": "OwnershipTransferred",
      "type": "event"
    },
    {
      "anonymous": false,
      "inputs": [
        {
          "indexed": false,
          "internalType": "address",
          "name": "owner",
          "type": "address"
        },
        {
          "indexed": false,
          "internalType": "address",
          "name": "nftAddr",
          "type": "address"
        },
        {
          "indexed": false,
          "internalType": "uint256",
          "name": "tokenId",
          "type": "uint256"
        }
      ],
      "name": "Registered",
      "type": "event"
    },
    {
      "anonymous": false,
      "inputs": [
        {
          "indexed": false,
          "internalType": "address",
          "name": "renter",
          "type": "address"
        },
        {
          "indexed": false,
          "internalType": "address",
          "name": "owner",
          "type": "address"
        },
        {
          "indexed": false,
          "internalType": "uint256",
          "name": "tokenId",
          "type": "uint256"
        },
        {
          "components": [
            {
              "internalType": "contract IERC721URI",
              "name": "nftAddr",
              "type": "address"
            },
            {
              "internalType": "address",
              "name": "renter",
              "type": "address"
            },
            {
              "internalType": "address",
              "name": "owner",
              "type": "address"
            },
            {
              "internalType": "uint256",
              "name": "minRentalPeriod",
              "type": "uint256"
            },
            {
              "internalType": "uint256",
              "name": "maxRentalPeriod",
              "type": "uint256"
            },
            {
              "internalType": "uint256",
              "name": "rentalPeriod",
              "type": "uint256"
            },
            {
              "internalType": "uint256",
              "name": "rentStarted",
              "type": "uint256"
            },
            {
              "internalType": "uint256",
              "name": "dailyRate",
              "type": "uint256"
            },
            {
              "internalType": "uint256",
              "name": "tokenId",
              "type": "uint256"
            }
          ],
          "indexed": false,
          "internalType": "struct wNFT.Wrap",
          "name": "data",
          "type": "tuple"
        }
      ],
      "name": "RentDenied",
      "type": "event"
    },
    {
      "anonymous": false,
      "inputs": [
        {
          "indexed": false,
          "internalType": "address",
          "name": "renter",
          "type": "address"
        },
        {
          "indexed": false,
          "internalType": "address",
          "name": "owner",
          "type": "address"
        },
        {
          "indexed": false,
          "internalType": "uint256",
          "name": "tokenId",
          "type": "uint256"
        },
        {
          "components": [
            {
              "internalType": "contract IERC721URI",
              "name": "nftAddr",
              "type": "address"
            },
            {
              "internalType": "address",
              "name": "renter",
              "type": "address"
            },
            {
              "internalType": "address",
              "name": "owner",
              "type": "address"
            },
            {
              "internalType": "uint256",
              "name": "minRentalPeriod",
              "type": "uint256"
            },
            {
              "internalType": "uint256",
              "name": "maxRentalPeriod",
              "type": "uint256"
            },
            {
              "internalType": "uint256",
              "name": "rentalPeriod",
              "type": "uint256"
            },
            {
              "internalType": "uint256",
              "name": "rentStarted",
              "type": "uint256"
            },
            {
              "internalType": "uint256",
              "name": "dailyRate",
              "type": "uint256"
            },
            {
              "internalType": "uint256",
              "name": "tokenId",
              "type": "uint256"
            }
          ],
          "indexed": false,
          "internalType": "struct wNFT.Wrap",
          "name": "data",
          "type": "tuple"
        }
      ],
      "name": "RentEnded",
      "type": "event"
    },
    {
      "anonymous": false,
      "inputs": [
        {
          "indexed": false,
          "internalType": "address",
          "name": "renter",
          "type": "address"
        },
        {
          "indexed": false,
          "internalType": "address",
          "name": "owner",
          "type": "address"
        },
        {
          "indexed": false,
          "internalType": "uint256",
          "name": "tokenId",
          "type": "uint256"
        },
        {
          "components": [
            {
              "internalType": "contract IERC721URI",
              "name": "nftAddr",
              "type": "address"
            },
            {
              "internalType": "address",
              "name": "renter",
              "type": "address"
            },
            {
              "internalType": "address",
              "name": "owner",
              "type": "address"
            },
            {
              "internalType": "uint256",
              "name": "minRentalPeriod",
              "type": "uint256"
            },
            {
              "internalType": "uint256",
              "name": "maxRentalPeriod",
              "type": "uint256"
            },
            {
              "internalType": "uint256",
              "name": "rentalPeriod",
              "type": "uint256"
            },
            {
              "internalType": "uint256",
              "name": "rentStarted",
              "type": "uint256"
            },
            {
              "internalType": "uint256",
              "name": "dailyRate",
              "type": "uint256"
            },
            {
              "internalType": "uint256",
              "name": "tokenId",
              "type": "uint256"
            }
          ],
          "indexed": false,
          "internalType": "struct wNFT.Wrap",
          "name": "data",
          "type": "tuple"
        }
      ],
      "name": "RentRequested",
      "type": "event"
    },
    {
      "anonymous": false,
      "inputs": [
        {
          "indexed": false,
          "internalType": "address",
          "name": "renter",
          "type": "address"
        },
        {
          "indexed": false,
          "internalType": "address",
          "name": "owner",
          "type": "address"
        },
        {
          "indexed": false,
          "internalType": "uint256",
          "name": "tokenId",
          "type": "uint256"
        },
        {
          "components": [
            {
              "internalType": "contract IERC721URI",
              "name": "nftAddr",
              "type": "address"
            },
            {
              "internalType": "address",
              "name": "renter",
              "type": "address"
            },
            {
              "internalType": "address",
              "name": "owner",
              "type": "address"
            },
            {
              "internalType": "uint256",
              "name": "minRentalPeriod",
              "type": "uint256"
            },
            {
              "internalType": "uint256",
              "name": "maxRentalPeriod",
              "type": "uint256"
            },
            {
              "internalType": "uint256",
              "name": "rentalPeriod",
              "type": "uint256"
            },
            {
              "internalType": "uint256",
              "name": "rentStarted",
              "type": "uint256"
            },
            {
              "internalType": "uint256",
              "name": "dailyRate",
              "type": "uint256"
            },
            {
              "internalType": "uint256",
              "name": "tokenId",
              "type": "uint256"
            }
          ],
          "indexed": false,
          "internalType": "struct wNFT.Wrap",
          "name": "data",
          "type": "tuple"
        }
      ],
      "name": "RentStarted",
      "type": "event"
    },
    {
      "anonymous": false,
      "inputs": [
        {
          "indexed": false,
          "internalType": "address",
          "name": "recipient",
          "type": "address"
        },
        {
          "indexed": false,
          "internalType": "uint256",
          "name": "amount",
          "type": "uint256"
        }
      ],
      "name": "ServiceFeeBalanceWithdrawn",
      "type": "event"
    },
    {
      "anonymous": false,
      "inputs": [
        {
          "indexed": false,
          "internalType": "uint256",
          "name": "percentage",
          "type": "uint256"
        }
      ],
      "name": "ServiceFeeRatioSet",
      "type": "event"
    },
    {
      "anonymous": false,
      "inputs": [
        {
          "indexed": true,
          "internalType": "address",
          "name": "from",
          "type": "address"
        },
        {
          "indexed": true,
          "internalType": "address",
          "name": "to",
          "type": "address"
        },
        {
          "indexed": true,
          "internalType": "uint256",
          "name": "tokenId",
          "type": "uint256"
        }
      ],
      "name": "Transfer",
      "type": "event"
    },
    {
      "anonymous": false,
      "inputs": [
        {
          "indexed": false,
          "internalType": "address",
          "name": "owner",
          "type": "address"
        },
        {
          "indexed": false,
          "internalType": "address",
          "name": "nftAddr",
          "type": "address"
        },
        {
          "indexed": false,
          "internalType": "uint256",
          "name": "tokenId",
          "type": "uint256"
        }
      ],
      "name": "Unregistered",
      "type": "event"
    },
    {
      "inputs": [
        {
          "internalType": "address",
          "name": "to",
          "type": "address"
        },
        {
          "internalType": "uint256",
          "name": "tokenId",
          "type": "uint256"
        }
      ],
      "name": "approve",
      "outputs": [],
      "stateMutability": "nonpayable",
      "type": "function"
    },
    {
      "inputs": [
        {
          "internalType": "uint256",
          "name": "tokenId",
          "type": "uint256"
        },
        {
          "internalType": "bool",
          "name": "approve",
          "type": "bool"
        }
      ],
      "name": "approveRentRequest",
      "outputs": [],
      "stateMutability": "nonpayable",
      "type": "function"
    },
    {
      "inputs": [
        {
          "internalType": "address",
          "name": "owner",
          "type": "address"
        }
      ],
      "name": "balanceOf",
      "outputs": [
        {
          "internalType": "uint256",
          "name": "",
          "type": "uint256"
        }
      ],
      "stateMutability": "view",
      "type": "function"
    },
    {
      "inputs": [
        {
          "internalType": "bytes32",
          "name": "c__0x59021614",
          "type": "bytes32"
        }
      ],
      "name": "c_0x59021614",
      "outputs": [],
      "stateMutability": "pure",
      "type": "function"
    },
    {
      "inputs": [
        {
          "internalType": "uint256",
          "name": "tokenId",
          "type": "uint256"
        }
      ],
      "name": "completeRent",
      "outputs": [],
      "stateMutability": "nonpayable",
      "type": "function"
    },
    {
      "inputs": [
        {
          "internalType": "uint256",
          "name": "tokenId",
          "type": "uint256"
        }
      ],
      "name": "getApproved",
      "outputs": [
        {
          "internalType": "address",
          "name": "",
          "type": "address"
        }
      ],
      "stateMutability": "view",
      "type": "function"
    },
    {
      "inputs": [
        {
          "internalType": "address",
          "name": "owner",
          "type": "address"
        },
        {
          "internalType": "address",
          "name": "operator",
          "type": "address"
        }
      ],
      "name": "isApprovedForAll",
      "outputs": [
        {
          "internalType": "bool",
          "name": "",
          "type": "bool"
        }
      ],
      "stateMutability": "view",
      "type": "function"
    },
    {
      "inputs": [],
      "name": "name",
      "outputs": [
        {
          "internalType": "string",
          "name": "",
          "type": "string"
        }
      ],
      "stateMutability": "view",
      "type": "function"
    },
    {
      "inputs": [
        {
          "internalType": "address",
          "name": "operator",
          "type": "address"
        },
        {
          "internalType": "address",
          "name": "from",
          "type": "address"
        },
        {
          "internalType": "uint256",
          "name": "",
          "type": "uint256"
        },
        {
          "internalType": "bytes",
          "name": "",
          "type": "bytes"
        }
      ],
      "name": "onERC721Received",
      "outputs": [
        {
          "internalType": "bytes4",
          "name": "",
          "type": "bytes4"
        }
      ],
      "stateMutability": "view",
      "type": "function"
    },
    {
      "inputs": [],
      "name": "owner",
      "outputs": [
        {
          "internalType": "address",
          "name": "",
          "type": "address"
        }
      ],
      "stateMutability": "view",
      "type": "function"
    },
    {
      "inputs": [
        {
          "internalType": "address",
          "name": "",
          "type": "address"
        }
      ],
      "name": "ownerBalance",
      "outputs": [
        {
          "internalType": "uint256",
          "name": "",
          "type": "uint256"
        }
      ],
      "stateMutability": "view",
      "type": "function"
    },
    {
      "inputs": [
        {
          "internalType": "uint256",
          "name": "tokenId",
          "type": "uint256"
        }
      ],
      "name": "ownerOf",
      "outputs": [
        {
          "internalType": "address",
          "name": "",
          "type": "address"
        }
      ],
      "stateMutability": "view",
      "type": "function"
    },
    {
      "inputs": [
        {
          "internalType": "address",
          "name": "nftAddr",
          "type": "address"
        },
        {
          "internalType": "uint256",
          "name": "tokenId",
          "type": "uint256"
        },
        {
          "internalType": "uint256",
          "name": "minRentalPeriod",
          "type": "uint256"
        },
        {
          "internalType": "uint256",
          "name": "maxRentalPeriod",
          "type": "uint256"
        },
        {
          "internalType": "uint256",
          "name": "dailyRate",
          "type": "uint256"
        }
      ],
      "name": "register",
      "outputs": [],
      "stateMutability": "payable",
      "type": "function"
    },
    {
      "inputs": [],
      "name": "renounceOwnership",
      "outputs": [],
      "stateMutability": "nonpayable",
      "type": "function"
    },
    {
      "inputs": [
        {
          "internalType": "uint256",
          "name": "tokenId",
          "type": "uint256"
        },
        {
          "internalType": "uint256",
          "name": "rentalPeriodInDays",
          "type": "uint256"
        }
      ],
      "name": "requestRent",
      "outputs": [],
      "stateMutability": "payable",
      "type": "function"
    },
    {
      "inputs": [
        {
          "internalType": "address",
          "name": "from",
          "type": "address"
        },
        {
          "internalType": "address",
          "name": "to",
          "type": "address"
        },
        {
          "internalType": "uint256",
          "name": "tokenId",
          "type": "uint256"
        }
      ],
      "name": "safeTransferFrom",
      "outputs": [],
      "stateMutability": "nonpayable",
      "type": "function"
    },
    {
      "inputs": [
        {
          "internalType": "address",
          "name": "from",
          "type": "address"
        },
        {
          "internalType": "address",
          "name": "to",
          "type": "address"
        },
        {
          "internalType": "uint256",
          "name": "tokenId",
          "type": "uint256"
        },
        {
          "internalType": "bytes",
          "name": "_data",
          "type": "bytes"
        }
      ],
      "name": "safeTransferFrom",
      "outputs": [],
      "stateMutability": "nonpayable",
      "type": "function"
    },
    {
      "inputs": [],
      "name": "serviceFeeBalance",
      "outputs": [
        {
          "internalType": "uint256",
          "name": "",
          "type": "uint256"
        }
      ],
      "stateMutability": "view",
      "type": "function"
    },
    {
      "inputs": [],
      "name": "serviceFeeRatio",
      "outputs": [
        {
          "internalType": "uint256",
          "name": "",
          "type": "uint256"
        }
      ],
      "stateMutability": "view",
      "type": "function"
    },
    {
      "inputs": [
        {
          "internalType": "address",
          "name": "operator",
          "type": "address"
        },
        {
          "internalType": "bool",
          "name": "approved",
          "type": "bool"
        }
      ],
      "name": "setApprovalForAll",
      "outputs": [],
      "stateMutability": "nonpayable",
      "type": "function"
    },
    {
      "inputs": [
        {
          "internalType": "uint256",
          "name": "percentage",
          "type": "uint256"
        }
      ],
      "name": "setServiceFeeRatio",
      "outputs": [],
      "stateMutability": "nonpayable",
      "type": "function"
    },
    {
      "inputs": [
        {
          "internalType": "bytes4",
          "name": "interfaceId",
          "type": "bytes4"
        }
      ],
      "name": "supportsInterface",
      "outputs": [
        {
          "internalType": "bool",
          "name": "",
          "type": "bool"
        }
      ],
      "stateMutability": "view",
      "type": "function"
    },
    {
      "inputs": [],
      "name": "symbol",
      "outputs": [
        {
          "internalType": "string",
          "name": "",
          "type": "string"
        }
      ],
      "stateMutability": "view",
      "type": "function"
    },
    {
      "inputs": [
        {
          "internalType": "uint256",
          "name": "index",
          "type": "uint256"
        }
      ],
      "name": "tokenByIndex",
      "outputs": [
        {
          "internalType": "uint256",
          "name": "",
          "type": "uint256"
        }
      ],
      "stateMutability": "view",
      "type": "function"
    },
    {
      "inputs": [
        {
          "internalType": "address",
          "name": "owner",
          "type": "address"
        },
        {
          "internalType": "uint256",
          "name": "index",
          "type": "uint256"
        }
      ],
      "name": "tokenOfOwnerByIndex",
      "outputs": [
        {
          "internalType": "uint256",
          "name": "",
          "type": "uint256"
        }
      ],
      "stateMutability": "view",
      "type": "function"
    },
    {
      "inputs": [
        {
          "internalType": "uint256",
          "name": "tokenId",
          "type": "uint256"
        }
      ],
      "name": "tokenStatus",
      "outputs": [
        {
          "internalType": "enum wNFT.WrapStatus",
          "name": "",
          "type": "uint8"
        }
      ],
      "stateMutability": "view",
      "type": "function"
    },
    {
      "inputs": [
        {
          "internalType": "uint256",
          "name": "tokenId",
          "type": "uint256"
        }
      ],
      "name": "tokenURI",
      "outputs": [
        {
          "internalType": "string",
          "name": "",
          "type": "string"
        }
      ],
      "stateMutability": "view",
      "type": "function"
    },
    {
      "inputs": [],
      "name": "totalSupply",
      "outputs": [
        {
          "internalType": "uint256",
          "name": "",
          "type": "uint256"
        }
      ],
      "stateMutability": "view",
      "type": "function"
    },
    {
      "inputs": [
        {
          "internalType": "address",
          "name": "from",
          "type": "address"
        },
        {
          "internalType": "address",
          "name": "to",
          "type": "address"
        },
        {
          "internalType": "uint256",
          "name": "tokenId",
          "type": "uint256"
        }
      ],
      "name": "transferFrom",
      "outputs": [],
      "stateMutability": "nonpayable",
      "type": "function"
    },
    {
      "inputs": [
        {
          "internalType": "address",
          "name": "newOwner",
          "type": "address"
        }
      ],
      "name": "transferOwnership",
      "outputs": [],
      "stateMutability": "nonpayable",
      "type": "function"
    },
    {
      "inputs": [
        {
          "internalType": "uint256",
          "name": "tokenId",
          "type": "uint256"
        }
      ],
      "name": "unregister",
      "outputs": [],
      "stateMutability": "nonpayable",
      "type": "function"
    },
    {
      "inputs": [
        {
          "internalType": "address",
          "name": "owner",
          "type": "address"
        }
      ],
      "name": "withdrawOwnerBalance",
      "outputs": [],
      "stateMutability": "nonpayable",
      "type": "function"
    },
    {
      "inputs": [
        {
          "internalType": "address",
          "name": "recipient",
          "type": "address"
        }
      ],
      "name": "withdrawServiceFeeBalance",
      "outputs": [],
      "stateMutability": "nonpayable",
      "type": "function"
    },
    {
      "inputs": [
        {
          "internalType": "uint256",
          "name": "",
          "type": "uint256"
        }
      ],
      "name": "wraps",
      "outputs": [
        {
          "internalType": "contract IERC721URI",
          "name": "nftAddr",
          "type": "address"
        },
        {
          "internalType": "address",
          "name": "renter",
          "type": "address"
        },
        {
          "internalType": "address",
          "name": "owner",
          "type": "address"
        },
        {
          "internalType": "uint256",
          "name": "minRentalPeriod",
          "type": "uint256"
        },
        {
          "internalType": "uint256",
          "name": "maxRentalPeriod",
          "type": "uint256"
        },
        {
          "internalType": "uint256",
          "name": "rentalPeriod",
          "type": "uint256"
        },
        {
          "internalType": "uint256",
          "name": "rentStarted",
          "type": "uint256"
        },
        {
          "internalType": "uint256",
          "name": "dailyRate",
          "type": "uint256"
        },
        {
          "internalType": "uint256",
          "name": "tokenId",
          "type": "uint256"
        }
      ],
      "stateMutability": "view",
      "type": "function"
    },
    {
      "stateMutability": "payable",
      "type": "receive"
    }
  ],
  "bytecode": "0x60806040523480156200001157600080fd5b506040516200931838038062009318833981810160405281019062000037919062000457565b6040518060400160405280600481526020017f774e4654000000000000000000000000000000000000000000000000000000008152506040518060400160405280600481526020017f774e4654000000000000000000000000000000000000000000000000000000008152508160009080519060200190620000bb92919062000390565b508060019080519060200190620000d492919062000390565b505050620000f7620000eb620002bf60201b60201c565b620002c760201b60201c565b6001600b81905550620001337fe98f4798ae68b1b358e2c84aa3daa3491578148aae9f334d37aa3819e4ef8aa360001b6200038d60201b60201c565b620001677f3ab2842c20ffb2226a2d5681bf5d75aa512d91ecee55c431d91e3907045cf0f660001b6200038d60201b60201c565b6200019b7f316364983402ff4a7a4059ac4a0636495a6b2d93b452161e6e5179fa2f086a2560001b6200038d60201b60201c565b620001cf7f1277085b38a3a2b83b5bef85ecf2488362d70e8fde21296a455b91e5b2e4aef860001b6200038d60201b60201c565b6064811062000215576040517f08c379a00000000000000000000000000000000000000000000000000000000081526004016200020c90620004aa565b60405180910390fd5b620002497f4152ec4f28c73c301eb69af117dced8dea14a8e338a2f8e3cc87223895524a6d60001b6200038d60201b60201c565b6200027d7f2f241136f6cde63ff82b6d049b5c96d4437d52141a508db37708021bebf8061c60001b6200038d60201b60201c565b620002b17f08dc0b3fd3d31a2ff6a1bd65c5b9082529ee95538ff01196bf051e27e8bfe56560001b6200038d60201b60201c565b80601081905550506200058f565b600033905090565b6000600a60009054906101000a900473ffffffffffffffffffffffffffffffffffffffff16905081600a60006101000a81548173ffffffffffffffffffffffffffffffffffffffff021916908373ffffffffffffffffffffffffffffffffffffffff1602179055508173ffffffffffffffffffffffffffffffffffffffff168173ffffffffffffffffffffffffffffffffffffffff167f8be0079c531659141344cd1fd0a4f28419497f9722a3daafe3b4186f6b6457e060405160405180910390a35050565b50565b8280546200039e90620004e7565b90600052602060002090601f016020900481019282620003c257600085556200040e565b82601f10620003dd57805160ff19168380011785556200040e565b828001600101855582156200040e579182015b828111156200040d578251825591602001919060010190620003f0565b5b5090506200041d919062000421565b5090565b5b808211156200043c57600081600090555060010162000422565b5090565b600081519050620004518162000575565b92915050565b6000602082840312156200046a57600080fd5b60006200047a8482850162000440565b91505092915050565b600062000492601983620004cc565b91506200049f826200054c565b602082019050919050565b60006020820190508181036000830152620004c58162000483565b9050919050565b600082825260208201905092915050565b6000819050919050565b600060028204905060018216806200050057607f821691505b602082108114156200051757620005166200051d565b5b50919050565b7f4e487b7100000000000000000000000000000000000000000000000000000000600052602260045260246000fd5b7f774e46543a20696e76616c696420736572766963652066656500000000000000600082015250565b6200058081620004dd565b81146200058c57600080fd5b50565b618d79806200059f6000396000f3fe6080604052600436106101fd5760003560e01c806367478a351161010d578063a22cb465116100a0578063b88d4fde1161006f578063b88d4fde1461075e578063c160724214610787578063c87b56dd146107b0578063e985e9c5146107ed578063f2fde38b1461082a57610204565b8063a22cb46514610690578063a807411e146106b9578063af90fdfd146106e4578063b01ce31f1461072157610204565b8063715018a6116100dc578063715018a6146105fa5780638da5cb5b1461061157806395d89b411461063c578063a02b161e1461066757610204565b806367478a351461054f57806367d32c8b146105785780636a440d5e146105a157806370a08231146105bd57610204565b80632d2d9eda1161019057806342842e0e1161015f57806342842e0e146104585780634f6ccce7146104815780635a215338146104be57806360208890146104e95780636352211e1461051257610204565b80632d2d9eda146103ad5780632f745c59146103d65780633cc65599146104135780633df7b3831461043c57610204565b8063150b7a02116101cc578063150b7a02146102d757806318160ddd146103145780631e0e99d01461033f57806323b872dd1461038457610204565b806301ffc9a71461020957806306fdde0314610246578063081812fc14610271578063095ea7b3146102ae57610204565b3661020457005b600080fd5b34801561021557600080fd5b50610230600480360381019061022b919061708f565b610853565b60405161023d91906179e5565b60405180910390f35b34801561025257600080fd5b5061025b6108cd565b6040516102689190617ac3565b60405180910390f35b34801561027d57600080fd5b5061029860048036038101906102939190617122565b61095f565b6040516102a591906178d8565b60405180910390f35b3480156102ba57600080fd5b506102d560048036038101906102d09190616fb3565b6109e4565b005b3480156102e357600080fd5b506102fe60048036038101906102f99190616e7c565b610afc565b60405161030b9190617a00565b60405180910390f35b34801561032057600080fd5b50610329610d15565b6040516103369190617f45565b60405180910390f35b34801561034b57600080fd5b5061036660048036038101906103619190617122565b610d22565b60405161037b99989796959493929190617a1b565b60405180910390f35b34801561039057600080fd5b506103ab60048036038101906103a69190616e2d565b610dd0565b005b3480156103b957600080fd5b506103d460048036038101906103cf9190617122565b610e30565b005b3480156103e257600080fd5b506103fd60048036038101906103f89190616fb3565b6110bc565b60405161040a9190617f45565b60405180910390f35b34801561041f57600080fd5b5061043a6004803603810190610435919061714b565b611161565b005b61045660048036038101906104519190617187565b611c76565b005b34801561046457600080fd5b5061047f600480360381019061047a9190616e2d565b612475565b005b34801561048d57600080fd5b506104a860048036038101906104a39190617122565b612495565b6040516104b59190617f45565b60405180910390f35b3480156104ca57600080fd5b506104d361252c565b6040516104e09190617f45565b60405180910390f35b3480156104f557600080fd5b50610510600480360381019061050b9190616d9f565b612532565b005b34801561051e57600080fd5b5061053960048036038101906105349190617122565b6129c2565b60405161054691906178d8565b60405180910390f35b34801561055b57600080fd5b5061057660048036038101906105719190616d9f565b612a74565b005b34801561058457600080fd5b5061059f600480360381019061059a9190617066565b612f01565b005b6105bb60048036038101906105b69190616fef565b612f04565b005b3480156105c957600080fd5b506105e460048036038101906105df9190616d9f565b613b64565b6040516105f19190617f45565b60405180910390f35b34801561060657600080fd5b5061060f613c1c565b005b34801561061d57600080fd5b50610626613ca4565b60405161063391906178d8565b60405180910390f35b34801561064857600080fd5b50610651613cce565b60405161065e9190617ac3565b60405180910390f35b34801561067357600080fd5b5061068e60048036038101906106899190617122565b613d60565b005b34801561069c57600080fd5b506106b760048036038101906106b29190616f77565b6145fb565b005b3480156106c557600080fd5b506106ce61477c565b6040516106db9190617f45565b60405180910390f35b3480156106f057600080fd5b5061070b60048036038101906107069190616d9f565b614782565b6040516107189190617f45565b60405180910390f35b34801561072d57600080fd5b5061074860048036038101906107439190617122565b61479a565b6040516107559190617aa8565b60405180910390f35b34801561076a57600080fd5b5061078560048036038101906107809190616efc565b614d59565b005b34801561079357600080fd5b506107ae60048036038101906107a99190617122565b614dbb565b005b3480156107bc57600080fd5b506107d760048036038101906107d29190617122565b61563a565b6040516107e49190617ac3565b60405180910390f35b3480156107f957600080fd5b50610814600480360381019061080f9190616df1565b61593f565b60405161082191906179e5565b60405180910390f35b34801561083657600080fd5b50610851600480360381019061084c9190616d9f565b6159d3565b005b60007f780e9d63000000000000000000000000000000000000000000000000000000007bffffffffffffffffffffffffffffffffffffffffffffffffffffffff1916827bffffffffffffffffffffffffffffffffffffffffffffffffffffffff191614806108c657506108c582615acb565b5b9050919050565b6060600080546108dc90618292565b80601f016020809104026020016040519081016040528092919081815260200182805461090890618292565b80156109555780601f1061092a57610100808354040283529160200191610955565b820191906000526020600020905b81548152906001019060200180831161093857829003601f168201915b5050505050905090565b600061096a82615bad565b6109a9576040517f08c379a00000000000000000000000000000000000000000000000000000000081526004016109a090617d45565b60405180910390fd5b6004600083815260200190815260200160002060009054906101000a900473ffffffffffffffffffffffffffffffffffffffff169050919050565b60006109ef826129c2565b90508073ffffffffffffffffffffffffffffffffffffffff168373ffffffffffffffffffffffffffffffffffffffff161415610a60576040517f08c379a0000000000000000000000000000000000000000000000000000000008152600401610a5790617e05565b60405180910390fd5b8073ffffffffffffffffffffffffffffffffffffffff16610a7f615c19565b73ffffffffffffffffffffffffffffffffffffffff161480610aae5750610aad81610aa8615c19565b61593f565b5b610aed576040517f08c379a0000000000000000000000000000000000000000000000000000000008152600401610ae490617c65565b60405180910390fd5b610af78383615c21565b505050565b6000610b2a7f862212f432f5a46b41bde3086a1d9fac6c256f9cbf17d85627c6ded28721126260001b612f01565b610b567f0866dfc07a4626e501e5d5184613482bdb5737c4bc67eb732e4f12b7bcd8089960001b612f01565b610b827f837d425fa4723d5a24483fe139de5d7a80c24b7596a88590a94ce0e80d3f4ed460001b612f01565b3073ffffffffffffffffffffffffffffffffffffffff168673ffffffffffffffffffffffffffffffffffffffff161480610be85750600073ffffffffffffffffffffffffffffffffffffffff168573ffffffffffffffffffffffffffffffffffffffff16145b15610c8057610c197f74365fc963c4059c53b2a425e55f0d92922000246e3dc1dbbc852d09a8b72b9060001b612f01565b610c457ff642225c18d29d81dfaac3da39999dc9c56768ab9165405a20196ddac879b97a60001b612f01565b610c717fc94f0cf96a4979525dcd56a6bbc21fa615f94f4d6fe34e54c9e12f28d0de67d160001b612f01565b63150b7a0260e01b9050610d0c565b610cac7f3239e0f968bc14b91dc573cce64a5855f0a4d4e4a35ba18c4c5696ba2bd13ece60001b612f01565b610cd87fa4c04c6d5608db46d561cd5f5657dbaa5b4087c4a204264bea20c0137fe569b160001b612f01565b610d047fc96611e69b17392e97bdeac38e3bc24d62db4a57dd61bb74f143aed18223802260001b612f01565b600060e01b90505b95945050505050565b6000600880549050905090565b600d6020528060005260406000206000915090508060000160009054906101000a900473ffffffffffffffffffffffffffffffffffffffff16908060010160009054906101000a900473ffffffffffffffffffffffffffffffffffffffff16908060020160009054906101000a900473ffffffffffffffffffffffffffffffffffffffff16908060030154908060040154908060050154908060060154908060070154908060080154905089565b610de1610ddb615c19565b82615cda565b610e20576040517f08c379a0000000000000000000000000000000000000000000000000000000008152600401610e1790617e65565b60405180910390fd5b610e2b838383615db8565b505050565b610e38615c19565b73ffffffffffffffffffffffffffffffffffffffff16610e56613ca4565b73ffffffffffffffffffffffffffffffffffffffff1614610eac576040517f08c379a0000000000000000000000000000000000000000000000000000000008152600401610ea390617d85565b60405180910390fd5b610ed87f733dedfd0f5099558b10b72155a142ef38345db18031b138042c647456904f3e60001b612f01565b610f047f4e0def02e477c265e5b7c3d1eed461d171e71001ccf671ca08ac497f67f746a560001b612f01565b610f307f0176eb48e368b84003e9bd459e404da02b9eac260f3a1a968bb1fcdf7edd5ec860001b612f01565b610f5c7ff54d400adaa8590257a498eb6e70b0af52bf38920eb7d83ec4d2960bda41021b60001b612f01565b60648110610f9f576040517f08c379a0000000000000000000000000000000000000000000000000000000008152600401610f9690617de5565b60405180910390fd5b610fcb7fe9bd497b00206d31af3c221df00b51cc320c2152de50ed0a22acc72dc6b37d8360001b612f01565b610ff77f78ecf94b9f8641b4fec5bad30581d782643c9518e27cd2e3636e3dfe73f19a3360001b612f01565b6110237f364a7bea4b6af4f8860cc6de9a7aa5954f74e16dc37cb8030b9882a2e0003e6560001b612f01565b806010819055506110567fe41a409b45a6bab81762b6c3378096356571206802e045061fe4c9486751ffde60001b612f01565b6110827f63ec8cb73803cd8dae14f1352aa417a6c14bedce34a5863095c21eee877b89b660001b612f01565b7f3c1772377f244371a4322307fb0d6c0aee199b012699aa8a3f4f2eed5ffc9876816040516110b19190617f45565b60405180910390a150565b60006110c783613b64565b8210611108576040517f08c379a00000000000000000000000000000000000000000000000000000000081526004016110ff90617ae5565b60405180910390fd5b600660008473ffffffffffffffffffffffffffffffffffffffff1673ffffffffffffffffffffffffffffffffffffffff168152602001908152602001600020600083815260200190815260200160002054905092915050565b8161118e7f548536891ec25f4e05e4545094d1d2baa690ef6ebce90d78f9f18f12c27885d960001b612f01565b6111ba7f8447120ca762eee67aec486ce297671b41e074d89e8a3a466d02510bff3438dd60001b612f01565b6111e67fe1aea303dec5775e670735f5e11454f0a4ae4c133242c8b274d2cd7b256a46e360001b612f01565b6112127f02f01cbf9cdb555ce67ecd79aa042c900935f17cc44f6872df8cdaa99038845060001b612f01565b61121b81615bad565b61125a576040517f08c379a000000000000000000000000000000000000000000000000000000000815260040161125190617b65565b60405180910390fd5b6112867f358b6504eccce87b0a31b08bbf5b9a76098eec94de86beb02bb9add1d87007f060001b612f01565b6112b27f4863389b6b8476e543272d680e2794db499929454df07eef463e6214e78e7ca360001b612f01565b6002600b5414156112f8576040517f08c379a00000000000000000000000000000000000000000000000000000000081526004016112ef90617f05565b60405180910390fd5b6002600b8190555061132c7f03f97953d684da2ea7de3376a4b7600479b8077083f501baa2cc68daac3c342360001b612f01565b6113587f4c68a35d988a0887769b6067f49194d757c810b7adcf19c30c4858947432791c60001b612f01565b6113847f967e42141a055aa0a52ab84b480b4002d18b77938dccd7dcfb18b2cf9044a6ce60001b612f01565b6000600d600085815260200190815260200160002090506113c77f31cb96c452879fc0289497ba4d2e66cbbd2b0e58de7a66948b0432673c94c70660001b612f01565b6113f37faee5a207dbaad4215215d3d7dffb0d1dfd4271dd4c90ad2dbf1ead22a4b96dd860001b612f01565b61141f7f645a4d5cf7664c0fd38fdae956f865c2dbda75fa8391a98872da108cc8e4325660001b612f01565b3373ffffffffffffffffffffffffffffffffffffffff168160020160009054906101000a900473ffffffffffffffffffffffffffffffffffffffff1673ffffffffffffffffffffffffffffffffffffffff16146114b1576040517f08c379a00000000000000000000000000000000000000000000000000000000081526004016114a890617ea5565b60405180910390fd5b6114dd7f2bd364349af923fc8089b8a5bf0174816845db8fc5e8afab9a13d231af079b1160001b612f01565b6115097fbef0e09b52d9874986e3e6a61190cffae7475836cf599737dec617c5bd60d54560001b612f01565b6115357ffdfdb1335a779be2da9a0df635d2f4b30e5d2b03389e4a11c73178f0196f815860001b612f01565b6115617f14122260548744086671540682ae1ece92565f9806fcb6a264b70a1fd3b8089460001b612f01565b6001600381111561159b577f4e487b7100000000000000000000000000000000000000000000000000000000600052602160045260246000fd5b6115a48561479a565b60038111156115dc577f4e487b7100000000000000000000000000000000000000000000000000000000600052602160045260246000fd5b1461161c576040517f08c379a000000000000000000000000000000000000000000000000000000000815260040161161390617e25565b60405180910390fd5b6116487faa160a0764b0b218b3e39d9c63f60ac520e68fb08732a609faf0750813898f3760001b612f01565b6116747f2b84572874e10e44645e3b132ed433558984f2fbc21cac9329a45b5bf031a46960001b612f01565b6116a07f317a1bd8b0208096ad1382be5eadb6e962479b457a8bd0ea6e6f8e4c482d4e3460001b612f01565b8215611878576116d27f9584acde4baace955bd9f6699b9f736840f417c52936f777a0b0b56dd4b1516060001b612f01565b6116fe7f21f13829f2b444d25ed4d030ab6808a79d1ea6900a021d9dad3ad91d4a8e40d360001b612f01565b61172a7fd70c625aef98a35c1ffc039ebcad811a18f7cc42d2c2cc4b294f78636860c38060001b612f01565b42816006018190555061175f7fbb3ba78402edc722fa13265eab6f6af5b6a5c5a62c3b2d070d9e4ee9ac86d8eb60001b612f01565b61178b7fb0da6bb7b0a8316fa4d582f2512edae3fdff3bc709404a7ec3b1f392ad776eb660001b612f01565b6117ba308260010160009054906101000a900473ffffffffffffffffffffffffffffffffffffffff1686615e77565b6117e67fb19b36e473524b55f62b074144a12247060ac8d19018556ce8957807006e74dc60001b612f01565b6118127f464dd15446a7b137878cea24b327ea9c335a22553de408233c1b9dcb589b2cb760001b612f01565b7f0f3a075513ac0fafa7efcc92be0b3f8078f9ea60dff055d97de1f465d4c261198160010160009054906101000a900473ffffffffffffffffffffffffffffffffffffffff1633868460405161186b9493929190617976565b60405180910390a1611c68565b6118a47f234db4dcb21b2da4b29cfafe36e1684f44b04c52f9e7f4c3507ddd6d98898e0e60001b612f01565b6118d07f299019ddd6e77286405b15c07591f97f0fed2a7a44d5b48333299aaf3e4cdabf60001b612f01565b6118fc7fce960da29d45c9e24b953d09fb46d7f41df62e9a654bdaba1500e9d67987a07360001b612f01565b60008160010160009054906101000a900473ffffffffffffffffffffffffffffffffffffffff1690506119517fdfad2f87ea0b880a45c96d02edd4206d6f74a138d9aae767c037c6d35cebe8ce60001b612f01565b61197d7fc93618832c3a41509a4502b35bc0cb73cdfd246be7b9504c4d111dcce93167cf60001b612f01565b60008260010160006101000a81548173ffffffffffffffffffffffffffffffffffffffff021916908373ffffffffffffffffffffffffffffffffffffffff1602179055506119ed7f72ade2bd8a4a0158d229fc39a3854bca12596d21dfd325ace13969bbf605b91460001b612f01565b611a197fcb37f8eae6f09889003c62a7c340405925deb65dff6a9745f368c4c1dbd6f03a60001b612f01565b6000611a477f7caa3dcd5bf393b4aa714f1e062690da2bd3594df4761ed4f03a63f584e6327b60001b612f01565b611a737f90d4be785fc7b5594bc17eeecd92d74671b2e1b539ae787d2675d837595ed46460001b612f01565b8173ffffffffffffffffffffffffffffffffffffffff1683600701548460050154611a9e91906180b1565b604051611aaa906178c3565b60006040518083038185875af1925050503d8060008114611ae7576040519150601f19603f3d011682016040523d82523d6000602084013e611aec565b606091505b505080915050611b1e7fc3e0a16df7825ef1fd00ba2186ef7986af6a7e1edbb588342173c6865ad2e66e60001b612f01565b611b4a7ff2c62f5178effea6fd78dd3925c2a0b96db4cd24a901de0cd59d1e2ccb11196860001b612f01565b611b767f95a46fdbe6ce87474216288fbadb741b1e70636b37955d0dac0fac1d322bd32160001b612f01565b80611b8057600080fd5b611bac7fff5e4b7c999e4cbc2151755bf7ef9d2125f1cff7fbe74d8eb3ac28e33cd13bad60001b612f01565b611bd87f9cd4288f1e365eb3a2a22ea24329b1d946627afe8796f531e83316389c99101460001b612f01565b611c047f5ee016705503be689415209c0ff6beb1be7276f42a343cdaac0ecf7adff9782160001b612f01565b7f16fb8cf9c1db83d482e9d77b9d79ee9d74bc55639fbb9fd40c754f9985cb50a48360010160009054906101000a900473ffffffffffffffffffffffffffffffffffffffff16338886604051611c5d9493929190617976565b60405180910390a150505b506001600b81905550505050565b81611ca37f548536891ec25f4e05e4545094d1d2baa690ef6ebce90d78f9f18f12c27885d960001b612f01565b611ccf7f8447120ca762eee67aec486ce297671b41e074d89e8a3a466d02510bff3438dd60001b612f01565b611cfb7fe1aea303dec5775e670735f5e11454f0a4ae4c133242c8b274d2cd7b256a46e360001b612f01565b611d277f02f01cbf9cdb555ce67ecd79aa042c900935f17cc44f6872df8cdaa99038845060001b612f01565b611d3081615bad565b611d6f576040517f08c379a0000000000000000000000000000000000000000000000000000000008152600401611d6690617b65565b60405180910390fd5b611d9b7f358b6504eccce87b0a31b08bbf5b9a76098eec94de86beb02bb9add1d87007f060001b612f01565b611dc77f4863389b6b8476e543272d680e2794db499929454df07eef463e6214e78e7ca360001b612f01565b611df37f15c3a8d19867aa0404ea258f29f8940fa1c160dcce5f4cd1bbd0db9bacf4d95460001b612f01565b611e1f7f3f70126bd7bea27d8d2ef84cb88f64be859ace6df328885322489e37c8e0ec3960001b612f01565b611e4b7f06cb25b789a2c749f36652c1c9d81899e007ff8090c5e0731c73d6ee62f27e8960001b612f01565b6000600d60008581526020019081526020016000209050611e8e7f034e0196cd920dea66b2db4a130576003f3ef1aa495ab4fb49e64ec3df01bb9f60001b612f01565b611eba7f50b6cae23ab83f0b7f53c24e06ace5e8ecbd1af26e3d57bc9c40eecf35f689a960001b612f01565b611ee67f3a44fa00232e669368ddd5b0354632a3e9af656aaae7fbe2c8872a38f962524060001b612f01565b60006003811115611f20577f4e487b7100000000000000000000000000000000000000000000000000000000600052602160045260246000fd5b611f298561479a565b6003811115611f61577f4e487b7100000000000000000000000000000000000000000000000000000000600052602160045260246000fd5b14611fa1576040517f08c379a0000000000000000000000000000000000000000000000000000000008152600401611f9890617dc5565b60405180910390fd5b611fcd7ff388ee11862dba4f581be7ec63ba3fb787065a549841e54ce2e7b8bc59b7a34c60001b612f01565b611ff97fc7b9761246b301a3c4d6e63afd2d931f22520c70f60cd1a017fa51a238f8117460001b612f01565b6120257fdbeab92f740a109f82b8148683cf853c4e34eb940eb4e875f19cf9fcd978680c60001b612f01565b6120517fc140386dbad6c48cc4a0fad1ff1f6b9841e2346b8d3ea3e8d91d649327226d9760001b612f01565b82816003015410612097576040517f08c379a000000000000000000000000000000000000000000000000000000000815260040161208e90617e85565b60405180910390fd5b6120c37f3c6f581c99e76d6918e524667e1c8163ea20104198cd5d1c6dd480251a9b40e760001b612f01565b6120ef7f7829cba614b3e1a75f7e5f4d251c1b0a142406a61318ecb44da84c84cec3c23160001b612f01565b61211b7fa6909ecf8bce8dc0fbf0070cec4e4a22266447c1748f05548ca489d624d153a560001b612f01565b6121477f159bd3ca671d0b311b74fe181508f7f77b3d8e9d62ce648b935bda5e0964e59660001b612f01565b8281600401541161218d576040517f08c379a000000000000000000000000000000000000000000000000000000000815260040161218490617e45565b60405180910390fd5b6121b97f569eb880aa1932c66164116210546c11186267b8c403a77fc9f51f24a6321e1760001b612f01565b6121e57f5b8c3f750dd0f01be653998807d0663e5ae18c75b8313c6a7ac0c93c1235cb8d60001b612f01565b6122117f9886e24d5ce362171cea60fe6fb55072ea38e11cc14292418ba6c670ab62166460001b612f01565b61223d7f33db6896bd4d4d6e075aa669413766514acd19ac5d4e20500b5dde5b556d087160001b612f01565b80600701548361224d91906180b1565b341461228e576040517f08c379a000000000000000000000000000000000000000000000000000000000815260040161228590617b85565b60405180910390fd5b6122ba7fbe603a3545ecbaadbd5b11e75e79b7c5c004a5cddfb8e5f70e054ea282683b1260001b612f01565b6122e67f20a5eb32a2db51ea9a080676d7e2f44e9ee3b9ad230339c44c449b6237099d4e60001b612f01565b6123127f2e660e85060ccef898efb83f908af87c2d123eac277cedbcf18009f79cb954b860001b612f01565b8281600501819055506123477f9407ada4f283551921a10cc49aeae4b818cf5e6c3f9a0329f14bbfcf9ad4d7b960001b612f01565b6123737f6c315380b532272b0113cb8c7d1f9413fed579d61fc84416580d8abd51c53d6b60001b612f01565b338160010160006101000a81548173ffffffffffffffffffffffffffffffffffffffff021916908373ffffffffffffffffffffffffffffffffffffffff1602179055506123e27f0315ad8a065f3df167117e92e87bee4569c74609728e3ec96ee784ddacc9b52360001b612f01565b61240e7f8ef23d109f21f9733cf501736465c25411d7999f82598aa2428033a234d7f1f760001b612f01565b7f729beec8e5b079ff4567c51be1a8cf0594045f89270045aeb11bb52b1be02a6b338260020160009054906101000a900473ffffffffffffffffffffffffffffffffffffffff1686846040516124679493929190617976565b60405180910390a150505050565b61249083838360405180602001604052806000815250614d59565b505050565b600061249f610d15565b82106124e0576040517f08c379a00000000000000000000000000000000000000000000000000000000081526004016124d790617ec5565b60405180910390fd5b6008828154811061251a577f4e487b7100000000000000000000000000000000000000000000000000000000600052603260045260246000fd5b90600052602060002001549050919050565b600f5481565b61253a615c19565b73ffffffffffffffffffffffffffffffffffffffff16612558613ca4565b73ffffffffffffffffffffffffffffffffffffffff16146125ae576040517f08c379a00000000000000000000000000000000000000000000000000000000081526004016125a590617d85565b60405180910390fd5b6002600b5414156125f4576040517f08c379a00000000000000000000000000000000000000000000000000000000081526004016125eb90617f05565b60405180910390fd5b6002600b819055506126287f80ad8c5101d222e575a4a4e1cb06fdb58ce20aaf1c1866c416369d8f4ad5556660001b612f01565b6126547f33452fd5c452102088d8ae30f40d1a5cb2f480b6e63daac63702390cdb669ad360001b612f01565b6126807ffa07893f2c5cf8b86ae1ed7ce34f836962c90372d514f49c556967acdfe7f32160001b612f01565b6000600f5490506126b37f7aab98a16d44822dfd4e805afb25f373854ddf58f5dce368df26eed95f841cd660001b612f01565b6126df7f659c6013d37e7729e4b36282d9f2ed148b8cab59e55b9aabcf3b97e5be0cb2ff60001b612f01565b6000811115612989576127147f09132e44a03e21672a7ed66db4cdf0ba67e7e363ee6895d39bca0bac1883533960001b612f01565b6127407fe97d9941b660a73e91d63e00b6fbcf479324f21a7a5926eb9070737b3ae0a97b60001b612f01565b61276c7ff949eb346f481f60fcf881e4f411d3db77635c7809bc82d9b3c2c780bae0019460001b612f01565b6000600f819055506127a07fd60da43305bd75f571f1e0bd5dcf57fe3d89393ce024596dba57013988621c5960001b612f01565b6127cc7fbbdbe58a46f16ee22be7ebe4244fab08cf3b0a77d6deb5700ec5cf5257a9909f60001b612f01565b60008273ffffffffffffffffffffffffffffffffffffffff16826040516127f2906178c3565b60006040518083038185875af1925050503d806000811461282f576040519150601f19603f3d011682016040523d82523d6000602084013e612834565b606091505b505090506128647f6ad97c148cb7366df95b8e52dc4723aeaf825ba9cdfb23ec2e6605e65462bf2b60001b612f01565b6128907fda700344e1658075ee60357ad1a397902067044a7dde003a9b34b8d3eeef7c6660001b612f01565b6128bc7f67792e357940161359ea43774b30ab592eaaa07806ca764c21d00b388363423160001b612f01565b806128c657600080fd5b6128f27f8e415c69da32e071cb7a7ad3933af43c71ec76e692876fc7c9d5f0e3ef60218e60001b612f01565b61291e7f3c0e730d7d97c5f4393a2e5a677bc9cb9d7bf5c0218e0bafb68634ec84e39e2360001b612f01565b61294a7fb8fdb3695987b763928e39e5087027f97c9130f3f4c36e9cb2f8a34057a5523660001b612f01565b7fabc93168cf2504aa3dc8412abbdb0ce2d2d361ee5aaef39a4c18a4fc7ddef20f838360405161297b9291906179bc565b60405180910390a1506129b6565b6129b57f3f3b8312bd0c621916913e2e2cf97519e953d1b23893b970b32c74dc3268338860001b612f01565b5b506001600b8190555050565b6000806002600084815260200190815260200160002060009054906101000a900473ffffffffffffffffffffffffffffffffffffffff169050600073ffffffffffffffffffffffffffffffffffffffff168173ffffffffffffffffffffffffffffffffffffffff161415612a6b576040517f08c379a0000000000000000000000000000000000000000000000000000000008152600401612a6290617ca5565b60405180910390fd5b80915050919050565b6002600b541415612aba576040517f08c379a0000000000000000000000000000000000000000000000000000000008152600401612ab190617f05565b60405180910390fd5b6002600b81905550612aed7e6e7f1c923541a19f773cb7e66efbdd0124b8a76577e1622d301e529a5bfacc60001b612f01565b612b197f576d101d22abb5ac7b67a8c7089d9feff1b20866adf9dbc574f5ab9a8408fbe360001b612f01565b612b457f76841cd4c6bcace20b619c0b72e59a2334a77997b6f423d242310878e5aa1fb160001b612f01565b6000600e60008373ffffffffffffffffffffffffffffffffffffffff1673ffffffffffffffffffffffffffffffffffffffff168152602001908152602001600020549050612bb57f712c02f4169405299f2ab056b9cbf797c20cd07908173a32a71c682123fc7abe60001b612f01565b612be17f6df4572c626a05f526478e67d5ec40229af43a41377b77b73a94bdb19f4f86a060001b612f01565b6000811115612ec857612c167f777a968a4f089a1a190a02c092eab32683770c9bb6f3470b9cfdda3b0c6dfd9160001b612f01565b612c427f6a15eb53a89ecf534c3e532ff728e33de26a43bd9a14393b1af44ff3cd4ad3b660001b612f01565b612c6e7faecad29186593c55ef26ec973cea4bd969c26a73a2cc654e0fe9b09846c879b560001b612f01565b6000600e60008473ffffffffffffffffffffffffffffffffffffffff1673ffffffffffffffffffffffffffffffffffffffff16815260200190815260200160002081905550612cdf7f1d86fdf51f531f9159c72066194bfc04a9140d44449fe5fa2c33cd89fb8fcbc960001b612f01565b612d0b7f9f60cba5b117b629cb73c1751b0cebd6a204f60a4659d464eb7a4ee204cb786d60001b612f01565b60008273ffffffffffffffffffffffffffffffffffffffff1682604051612d31906178c3565b60006040518083038185875af1925050503d8060008114612d6e576040519150601f19603f3d011682016040523d82523d6000602084013e612d73565b606091505b50509050612da37fa25544952129dc6035be3422c89813ce55d73df369bed65c9c3b7774d860129d60001b612f01565b612dcf7f594b0401f07ba9646443dfd186317df47a782c1f8f5844bcaa06069f601b913e60001b612f01565b612dfb7fd38574b208caca09918df05df73ac559404f33582f1b2feee22af4a3c0ad401660001b612f01565b80612e0557600080fd5b612e317ffabdd7f0d53b7c3113ceed7138abbd79dbc3334e71ab64ace554b22c3c7e379060001b612f01565b612e5d7f2d68eb62cd94b74c0fd352aa8510ee8c5e6a8c8037fef497b8a6ea54540ee3e960001b612f01565b612e897f1d17bc86573ab8beef0be95137429720bc3d604eadc6694967cc63cb63a5997260001b612f01565b7f4970036529e390a5458169459ba4b71847bc26ff7bf0b974a1cef97a516bc01b8383604051612eba9291906179bc565b60405180910390a150612ef5565b612ef47fd60f652a680a25405606461dba76777c00c848c5782a28444882690b02c2d7a160001b612f01565b5b506001600b8190555050565b50565b6002600b541415612f4a576040517f08c379a0000000000000000000000000000000000000000000000000000000008152600401612f4190617f05565b60405180910390fd5b6002600b81905550612f7e7f9dde5c9a4981b905cb2cffff3aefb3f7a2ef533d504fc3299808c6bd7c4ece8f60001b612f01565b612faa7f48c21e7eaa994a1b45cb9f5446896ee2967246f6044e0bbb6b0c9d32ccc326fb60001b612f01565b612fd67fe7469941799bdde15a54c430ae6a14f40aa4d3b9e1bf9a7dfebd05d7958092fe60001b612f01565b6130027f4005ee821f2eb25a669fc30784236b34d3b253d64474ed57a18860c7b1f6380a60001b612f01565b3073ffffffffffffffffffffffffffffffffffffffff168573ffffffffffffffffffffffffffffffffffffffff161415613071576040517f08c379a000000000000000000000000000000000000000000000000000000000815260040161306890617d25565b60405180910390fd5b61309d7f0b370212c6fb9a56b7bafd724453a4440c945361d4f9a0fa91ea0a6fd9cdbfb160001b612f01565b6130c97f4a3753b6179d80c7f4a789214137616c1b27f53c14f3dc57fb69877454d5c37460001b612f01565b6130f57f7ee3a632bdd2a9edd8ef0d9600339574119f6203dc3c6e34879637b125040a8460001b612f01565b60008573ffffffffffffffffffffffffffffffffffffffff16636352211e866040518263ffffffff1660e01b81526004016131309190617f45565b60206040518083038186803b15801561314857600080fd5b505afa15801561315c573d6000803e3d6000fd5b505050506040513d601f19601f820116820180604052508101906131809190616dc8565b90506131ae7ffafd5788c6084f55745c704cabf7a40e54d6c29d82351c8a4729c0ae465ddd3960001b612f01565b6131da7f9af0010035a250f5fdc5d428389fa15e5028ee841de9ed78d477e01064cb58e960001b612f01565b6132067fe69d03596c9b10249fe6780ccdb845dd1aee0c3b685d699ede02ab6701af7af060001b612f01565b8073ffffffffffffffffffffffffffffffffffffffff163373ffffffffffffffffffffffffffffffffffffffff1614613274576040517f08c379a000000000000000000000000000000000000000000000000000000000815260040161326b90617cc5565b60405180910390fd5b6132a07f3bcd51bb991006fdf43a3a41f2b33c3034277078b9a32f2783d0d9557abe2fd160001b612f01565b6132cc7f9bc3965b49f99941e1c5399be556adc3fdf6fe78f14d5ee887d2ae1f99d968c060001b612f01565b6132f87f496e2f5f119f0f32d5aa3af8310a3cc2fa064b082f787b48ec90b2070336f84860001b612f01565b6133247ffa53651fdea643d21056f7435b7070b737b09b28d3e5ddaa9e9e0f556b0144ff60001b612f01565b60008411613367576040517f08c379a000000000000000000000000000000000000000000000000000000000815260040161335e90617ee5565b60405180910390fd5b6133937f60d0670ac939b26aa3c7eff395d95ced894671a8f794546750038f00389ecdf160001b612f01565b6133bf7fb48d9c961a4ec27978407acdfcd69526ccf82396267acf7b1c712fc3a2a1030560001b612f01565b6133eb7fc808c5762f5e0c33cc3fd591fa4f0cab1e1d6299702a1fe5efa2513dec9e4c7d60001b612f01565b6134177fa4e114d23dc39d2d5f98b391fcfc2654186b03052dcb74ec52de2b7c05ed20de60001b612f01565b838311613459576040517f08c379a000000000000000000000000000000000000000000000000000000000815260040161345090617ba5565b60405180910390fd5b6134857fde098ca424d73c1d4f4c83da7d262d07ddf6120c0d564731c484fede31a8aacc60001b612f01565b6134b17f37ec2c8fc95bf729ece78bfc554f6a008ffa763b0fc3e84d3278d319ca0559f360001b612f01565b6134dd7f072bfc9822bd842577f6d049f7e489bfdd90418cc3b0e14e047cb0d2c7c0365760001b612f01565b6135097f5860f991cefed58f262b7eeea775fafbff831590d2c9d6c0a263020593c98b7860001b612f01565b6000821161354c576040517f08c379a000000000000000000000000000000000000000000000000000000000815260040161354390617d65565b60405180910390fd5b6135787f54664208771dc7f67f5156d043ccf7d1a2b6b6620487a9310cddc47bace33ba460001b612f01565b6135a47f7769e71efd64d688c73c8768d883183b1f15ac7c672f8ab12b4248c363b1975260001b612f01565b6135d07f9a7fbae7c253176bf6e7b567ee0569c779a46a09181136a21c22582a771a6cba60001b612f01565b6000600c5490506136037f0523473d3783ee10b2c127c6e18c8ae34f74fe378286de23296a8f4ff920782960001b612f01565b61362f7f41bfdfac4ba21b4487adedd5394d651a563a7caa9973313d1f57baa9ff7e938e60001b612f01565b6000600d600083815260200190815260200160002090506136727f3178e50b4ef1e9eaaa9ec68a01ea691812d66a2a2028c7eb512ca71a6b679c2060001b612f01565b61369e7f6727e711085864c17deefce5b0f70be43dbbba84e17603bdb99cf16674d7faca60001b612f01565b6001600c60008282546136b1919061802a565b925050819055506136e47fd4f574242ad41870a661ea658f9c0db0df81429d054e7da3f4074650c6570a3c60001b612f01565b6137107fb43823dd234fdab02b0aa375d865475ef2a4a173f34fbebcf6a86f1a6be14c4760001b612f01565b878160000160006101000a81548173ffffffffffffffffffffffffffffffffffffffff021916908373ffffffffffffffffffffffffffffffffffffffff16021790555061377f7f12e54bf279e1f5b13d7093c0db5782b3b901030012db8ff52488044368f6cedc60001b612f01565b6137ab7f18e88ffd96a2511e063a956a2471189f04e11696372e023c6219b8a76006097b60001b612f01565b828160020160006101000a81548173ffffffffffffffffffffffffffffffffffffffff021916908373ffffffffffffffffffffffffffffffffffffffff16021790555061381a7f96cf7ed784b207c373a19a17baf785f0759f905eb0e8d51f80cec89ae9b4714560001b612f01565b6138467f19a579ec5380a859100590a53be0ad4dd658d2f444f993a62b079a50c013cbb260001b612f01565b86816008018190555061387b7fb09803040b51b7aa1cde78b3f2424836f2b4fb3c23451ff110bdee47147b5a4260001b612f01565b6138a77f23e5250f6e77630b89b36383396a673324ea51f7b9edb37628edcb5cee6d680860001b612f01565b8581600301819055506138dc7f89955dd60a1c5728486d53e8e8b24c816b9fb7f189066bda1597913a9d8be7c060001b612f01565b6139087f5e581b7f58fae6119d859cd3bfe8e11327c0731c33d5f43b4592b7849cce1b1160001b612f01565b84816004018190555061393d7fb7faa5f8ce809e5517b52acf61ca2747b7a9c60d9e22714ae4dc64c2fdb5fd4b60001b612f01565b6139697f88df7c7ff96fdb2099e73450b3109dc3f2792491fa2ea276b21be8cf6d5e919560001b612f01565b83816007018190555061399e7f015ae6082b74fd974e323c222ff49eb643c1859173b78d5a89530231dff072fe60001b612f01565b6139ca7f557f24b60a6ec206b0ae661a544b4dff1521af0e17ba8402860041d7c03af7a260001b612f01565b8060000160009054906101000a900473ffffffffffffffffffffffffffffffffffffffff1673ffffffffffffffffffffffffffffffffffffffff166342842e0e84308a6040518463ffffffff1660e01b8152600401613a2b939291906178f3565b600060405180830381600087803b158015613a4557600080fd5b505af1158015613a59573d6000803e3d6000fd5b50505050613a897fed55688197bae82ba8922f031e256381672d4388339e55854c55f25c8a0b0e0660001b612f01565b613ab57f83b9c888230a1ef62ec6259c7ff511ff58e75067512af937844bdfd4f3d5e51560001b612f01565b613abf30836160d3565b613aeb7f77b2c7216ff05271abc427d56965e23839655812c408946171786ce78b37f50360001b612f01565b613b177f873826a045286a5206ad7c4ca5de65a73633cafd0ee0f8350d9e7340ab57a2ea60001b612f01565b7f199098452639b249bef6f727bc09ce903cece47ca72a8518bef9367ad39b6de7338989604051613b4a939291906178f3565b60405180910390a15050506001600b819055505050505050565b60008073ffffffffffffffffffffffffffffffffffffffff168273ffffffffffffffffffffffffffffffffffffffff161415613bd5576040517f08c379a0000000000000000000000000000000000000000000000000000000008152600401613bcc90617c85565b60405180910390fd5b600360008373ffffffffffffffffffffffffffffffffffffffff1673ffffffffffffffffffffffffffffffffffffffff168152602001908152602001600020549050919050565b613c24615c19565b73ffffffffffffffffffffffffffffffffffffffff16613c42613ca4565b73ffffffffffffffffffffffffffffffffffffffff1614613c98576040517f08c379a0000000000000000000000000000000000000000000000000000000008152600401613c8f90617d85565b60405180910390fd5b613ca260006160f1565b565b6000600a60009054906101000a900473ffffffffffffffffffffffffffffffffffffffff16905090565b606060018054613cdd90618292565b80601f0160208091040260200160405190810160405280929190818152602001828054613d0990618292565b8015613d565780601f10613d2b57610100808354040283529160200191613d56565b820191906000526020600020905b815481529060010190602001808311613d3957829003601f168201915b5050505050905090565b80613d8d7f548536891ec25f4e05e4545094d1d2baa690ef6ebce90d78f9f18f12c27885d960001b612f01565b613db97f8447120ca762eee67aec486ce297671b41e074d89e8a3a466d02510bff3438dd60001b612f01565b613de57fe1aea303dec5775e670735f5e11454f0a4ae4c133242c8b274d2cd7b256a46e360001b612f01565b613e117f02f01cbf9cdb555ce67ecd79aa042c900935f17cc44f6872df8cdaa99038845060001b612f01565b613e1a81615bad565b613e59576040517f08c379a0000000000000000000000000000000000000000000000000000000008152600401613e5090617b65565b60405180910390fd5b613e857f358b6504eccce87b0a31b08bbf5b9a76098eec94de86beb02bb9add1d87007f060001b612f01565b613eb17f4863389b6b8476e543272d680e2794db499929454df07eef463e6214e78e7ca360001b612f01565b6002600b541415613ef7576040517f08c379a0000000000000000000000000000000000000000000000000000000008152600401613eee90617f05565b60405180910390fd5b6002600b81905550613f2b7fc8593e32365c9238e88c411514b52c08ef6c178c0b52e48c126a744ba870b5bb60001b612f01565b613f577fced2f4098d1313c7c8e45d3b0dc8295b4746a543692bd9628e4ec69be39d68f160001b612f01565b613f837f292d20b79f60476aee43af846872b3c5b4bd19c24be257134ddb4f205ab8db0360001b612f01565b6000600d60008481526020019081526020016000209050613fc67ff4a002d6d32ee5334cb9f387fb6c8c6794733c7479a34c676ef6f772f89e8b7a60001b612f01565b613ff27fbdf1fa52b4d0ea22924d9a18822eef9c9424fc610a2fd1d4fbf586e7d381512d60001b612f01565b60008160000160009054906101000a900473ffffffffffffffffffffffffffffffffffffffff1690506140477fb5e8dbea6b9acb668bf36955557b44032a6c2731df610fc89adffa5612fba37b60001b612f01565b6140737f7c0c0853739aa9303afdb4917d44e3664f20659d935e0cc2d1e2df031c6e13cf60001b612f01565b61409f7fe256a1fd4c5f9e26b1821aa4cc41c4ba157ded3fdf1e9ae6c8221e2027c897bd60001b612f01565b600060038111156140d9577f4e487b7100000000000000000000000000000000000000000000000000000000600052602160045260246000fd5b6140e28561479a565b600381111561411a577f4e487b7100000000000000000000000000000000000000000000000000000000600052602160045260246000fd5b1461415a576040517f08c379a000000000000000000000000000000000000000000000000000000000815260040161415190617f25565b60405180910390fd5b6141867f934679218495bc64f32706fd9f3e40adc0da37e5d8bc4f1242b1845a9ce6fdfe60001b612f01565b6141b27f349f47a3e1fb1d6fac62498bd32926d02614093e747db49dcd5c6547a1a6dfca60001b612f01565b6141de7f9e500548730438d7857c979044dc445d2adeb7142778f64a2ed328a817373ae560001b612f01565b61420a7fd4a850ca3bbfbcd19270eb95819d92b07f770cbba5d91eef2883ab736921faf560001b612f01565b3373ffffffffffffffffffffffffffffffffffffffff168260020160009054906101000a900473ffffffffffffffffffffffffffffffffffffffff1673ffffffffffffffffffffffffffffffffffffffff161461429c576040517f08c379a000000000000000000000000000000000000000000000000000000000815260040161429390617ce5565b60405180910390fd5b6142c87f4ef667a92a56fd612140f96f264afdc0fbebabcb535aa633fbb38c9accdd40ef60001b612f01565b6142f47f32970ff8e643b2099f4d5dff7f38a9ab65be18d0e9141a0597abd7d57c1e7fd960001b612f01565b6143207f1c6d6fc544492864f40429f63c33ed52fb4303832b33501cb7cd9ea88a9780a960001b612f01565b614329846161b7565b6143557f67e52bfcf2b07dcc597e34a264bbe9fba6c982bb1f4f0d097d053328b1d9f1ff60001b612f01565b6143817ff8f5ebbcc947a8de9be963faebaa9d5332a3041a7144041a0c0f5cabe240f6e560001b612f01565b816008015493506143b47fbd5ec5183294d1d96d85a0eaebd3176be7ecb97ee0b5c23a4ffd47241d8549a860001b612f01565b6143e07fcb21593c29dc8da256603bb1b28a5e7ded5917a5be7a0c1fe37cd2264ddd857460001b612f01565b8160000160009054906101000a900473ffffffffffffffffffffffffffffffffffffffff1673ffffffffffffffffffffffffffffffffffffffff166342842e0e3033876040518463ffffffff1660e01b8152600401614441939291906178f3565b600060405180830381600087803b15801561445b57600080fd5b505af115801561446f573d6000803e3d6000fd5b5050505061449f7ff11b761c5ab3a90fd9b09863c909970be821585e46fe53e83afd8e398b3835eb60001b612f01565b600d6000858152602001908152602001600020600080820160006101000a81549073ffffffffffffffffffffffffffffffffffffffff02191690556001820160006101000a81549073ffffffffffffffffffffffffffffffffffffffff02191690556002820160006101000a81549073ffffffffffffffffffffffffffffffffffffffff021916905560038201600090556004820160009055600582016000905560068201600090556007820160009055600882016000905550506145867fed2655ae987ff0b73e58e2704e520b720e7181ba5ec6983f1381684fa5e2a62060001b612f01565b6145b27f38da2a46d6c8775d76eba7697b1fb57679f1dcd13cca9ab614886e6a234a837360001b612f01565b7fdd3d61f9ad17977a029b1db262e9ced203db4f7eb851598652d1e80e8aea6dab3382866040516145e5939291906178f3565b60405180910390a150506001600b819055505050565b614603615c19565b73ffffffffffffffffffffffffffffffffffffffff168273ffffffffffffffffffffffffffffffffffffffff161415614671576040517f08c379a000000000000000000000000000000000000000000000000000000000815260040161466890617c05565b60405180910390fd5b806005600061467e615c19565b73ffffffffffffffffffffffffffffffffffffffff1673ffffffffffffffffffffffffffffffffffffffff16815260200190815260200160002060008473ffffffffffffffffffffffffffffffffffffffff1673ffffffffffffffffffffffffffffffffffffffff16815260200190815260200160002060006101000a81548160ff0219169083151502179055508173ffffffffffffffffffffffffffffffffffffffff1661472b615c19565b73ffffffffffffffffffffffffffffffffffffffff167f17307eab39ab6107e8899845ad3d59bd9653f200f220920489ca2b5937696c318360405161477091906179e5565b60405180910390a35050565b60105481565b600e6020528060005260406000206000915090505481565b6000816147c97f548536891ec25f4e05e4545094d1d2baa690ef6ebce90d78f9f18f12c27885d960001b612f01565b6147f57f8447120ca762eee67aec486ce297671b41e074d89e8a3a466d02510bff3438dd60001b612f01565b6148217fe1aea303dec5775e670735f5e11454f0a4ae4c133242c8b274d2cd7b256a46e360001b612f01565b61484d7f02f01cbf9cdb555ce67ecd79aa042c900935f17cc44f6872df8cdaa99038845060001b612f01565b61485681615bad565b614895576040517f08c379a000000000000000000000000000000000000000000000000000000000815260040161488c90617b65565b60405180910390fd5b6148c17f358b6504eccce87b0a31b08bbf5b9a76098eec94de86beb02bb9add1d87007f060001b612f01565b6148ed7f4863389b6b8476e543272d680e2794db499929454df07eef463e6214e78e7ca360001b612f01565b6149197f882de63e9e9351df723204df4aecda3fbdfc071c8da7b2b7b244a53c57dd0c1a60001b612f01565b6149457ff2c9b1fbf06d5e108b4087887cd39f8a16ad05100496197b734647561a16129d60001b612f01565b6149717fe18c73e68ad18dc6fe7432f76be7abf4727e94ab1e38ae97e86c465f797be3b660001b612f01565b6000600d600085815260200190815260200160002090506149b47f845d76ecb1aff1c5e4a9509b6d2e976fd076054215b60e43f1936c9f0fc864e260001b612f01565b6149e07f905abb0cfd04d48e5e8da0eda8d5ae4dbda5e95d630c20ed4492914558f964cc60001b612f01565b600073ffffffffffffffffffffffffffffffffffffffff168160010160009054906101000a900473ffffffffffffffffffffffffffffffffffffffff1673ffffffffffffffffffffffffffffffffffffffff161415614ac757614a657fafe956362648b24e533bb610d9e6e6b2576f5c9e303f78d645d6d69651a53a6c60001b612f01565b614a917f2904835a24e96678a5a3c572e1aba3ba924ebda00f72f45a4918daa888d6633560001b612f01565b614abd7f8b65f689a01618952e1b8c35da7405f7df45b24511ea186d72e7756cf2ee7ca160001b612f01565b6000925050614d53565b614af37fec5ba2f143e7da63bc3a41b806ed8811641dca1e365fdfc579c30a66d5acc2ae60001b612f01565b614b1f7f76dc6c17466e006255e13db5e67967b10f5b010456465e866ff54b39b5728bba60001b612f01565b600081600601541415614bba57614b587f8e5b7708c5d77f48a133f3f83118375b55af9406510a5f20552621c45b095b2060001b612f01565b614b847f27fd4f8232b11a747ce79c181964f67ff44ef2d603164417b558f32b8411779860001b612f01565b614bb07f907a1998470261a0ed4a70855c965f3762946dd4c89111f355c69be98be19f4060001b612f01565b6001925050614d53565b614be67f3008b919e2a3dc2d697ef258e3694254d419c84dc1b2374a8155ad2295fbf18960001b612f01565b614c127f661581c8233a91aeec6ca6585b893f314d815325ab94e7c35e94e86bfb8865be60001b612f01565b42620151808260050154614c2691906180b1565b8260060154614c35919061802a565b1015614cc957614c677f0b93cf074867219e2e8080171ecb8780c8d3c4fb0238aae073517ac9a0498a2160001b612f01565b614c937ff0ebfb712d5e1f48bd110f11ebc5a9d604815a757456e12169aa48626418492260001b612f01565b614cbf7f59b136dcded7e5d5272f19fc8b6ed442c910a6b19e419a0538ab71361ac42f4c60001b612f01565b6003925050614d53565b614cf57f033d6b9229323c522e79d58b2ca7a27730036a3c90990f3ad3b1acf090eeeb2360001b612f01565b614d217f1921df821ae22765d143ed8aa1443d257656564f5eda2baaead33a920c72bf5660001b612f01565b614d4d7f94cf1637f60564c16e291a45da14bdd7937421b5e0994b3e72aa54284de46c9560001b612f01565b60029250505b50919050565b614d6a614d64615c19565b83615cda565b614da9576040517f08c379a0000000000000000000000000000000000000000000000000000000008152600401614da090617e65565b60405180910390fd5b614db5848484846162c8565b50505050565b80614de87f548536891ec25f4e05e4545094d1d2baa690ef6ebce90d78f9f18f12c27885d960001b612f01565b614e147f8447120ca762eee67aec486ce297671b41e074d89e8a3a466d02510bff3438dd60001b612f01565b614e407fe1aea303dec5775e670735f5e11454f0a4ae4c133242c8b274d2cd7b256a46e360001b612f01565b614e6c7f02f01cbf9cdb555ce67ecd79aa042c900935f17cc44f6872df8cdaa99038845060001b612f01565b614e7581615bad565b614eb4576040517f08c379a0000000000000000000000000000000000000000000000000000000008152600401614eab90617b65565b60405180910390fd5b614ee07f358b6504eccce87b0a31b08bbf5b9a76098eec94de86beb02bb9add1d87007f060001b612f01565b614f0c7f4863389b6b8476e543272d680e2794db499929454df07eef463e6214e78e7ca360001b612f01565b6002600b541415614f52576040517f08c379a0000000000000000000000000000000000000000000000000000000008152600401614f4990617f05565b60405180910390fd5b6002600b81905550614f867f695e0104ed4c66be58ca9c16a12cef0c664ac3c9917b0c334fe480194994114d60001b612f01565b614fb27fbf049ea91e48d11e02dbd5fe326060208fa21fabb7d52d9a3f4a207acd190ac360001b612f01565b614fde7fbe088bf20f56b5f21cfc898fa7c23b1afaf6b3327910ac5321f2dd3292b41dbd60001b612f01565b61500a7ff328302b9e914be965b92b6c4b9ed797a3cd74d4d7b04c291ba57be7cba8594660001b612f01565b600380811115615043577f4e487b7100000000000000000000000000000000000000000000000000000000600052602160045260246000fd5b61504c8361479a565b6003811115615084577f4e487b7100000000000000000000000000000000000000000000000000000000600052602160045260246000fd5b146150c4576040517f08c379a00000000000000000000000000000000000000000000000000000000081526004016150bb90617be5565b60405180910390fd5b6150f07f868f7287b4ee8b55224140f2b40bae40bd8856700665f73214cdb6a5fa7dbbfc60001b612f01565b61511c7f37a7718d0f8dca673eda545c6260cf6e2a75af3640d965d2ffda26c7a521afeb60001b612f01565b6151487fb421382bba43ca2ec27aef805a7c43ec66379e7274b3294a16cb9f8f3000991160001b612f01565b6000600d6000848152602001908152602001600020905061518b7fdd2cf787b4987a9fbc5800342d9ae0b5f2a676e2d88042f2b073ad351800a67560001b612f01565b6151b77f9e08abbf54b3a33c770f89d0e10f60f7658da8bd6f25dc1efe1164801be4af6560001b612f01565b60008160010160009054906101000a900473ffffffffffffffffffffffffffffffffffffffff16905061520c7fa4a3d53514bbfb650140e0b6c64939b9f3f94477e2f2e9fce789d255183d858660001b612f01565b6152387fb0cba920f6a6e3262153de57048b46b5f8e70a7cf2ff2e2683561ceaf71f833a60001b612f01565b60008260070154836005015461524e91906180b1565b905061527c7f5e555756608f3e3e7c9699b485236bdfa7e2978127e9f52f6350e7b8f288214a60001b612f01565b6152a87f8744e15357eb7ee4438b1304d79753ef2a6708c58a71d69c6e525d97ffdfaf2760001b612f01565b60008360010160006101000a81548173ffffffffffffffffffffffffffffffffffffffff021916908373ffffffffffffffffffffffffffffffffffffffff1602179055506153187f740a28f63c9eb414874a8efa9190e51849affa155c787961aa87bb3369741d0660001b612f01565b6153447f484ab7782786b9f71b3ebe8e850928f0ff071b38b155f2dc122de0d8dc6e9c1560001b612f01565b61534f823087615e77565b61537b7ff599cbd289543299cad458173f0ebb46d33cff713602685f5cfef405312193c860001b612f01565b6153a77f3b02429c520af7be2609e72bb5070209404232c73f323129220bea736c63b4ed60001b612f01565b60006064601054836153b991906180b1565b6153c39190618080565b90506153f17f120fb3881b02089a6ca114e571c00e124ff0797d81b61294823ad472ec1eb60060001b612f01565b61541d7f4cb14f8e0d68af6eff7ec5b807f61783f8d7bf0dc165353c55d061d8fc2ad6a160001b612f01565b6000818361542b919061810b565b90506154597f3e42ff93d5a8d59d82c13e297a5d77952fc3ce78c9507a88fa081d048acf820860001b612f01565b6154857f1b8874d07486210f0d8b1b98acfd55207daa9c8895ec58973b3960884caee0ab60001b612f01565b80600e60008760020160009054906101000a900473ffffffffffffffffffffffffffffffffffffffff1673ffffffffffffffffffffffffffffffffffffffff1673ffffffffffffffffffffffffffffffffffffffff16815260200190815260200160002060008282546154f8919061802a565b9250508190555061552b7f5256174b7bc916838b77d07321a92f7d0ae592a90929234546a128f6e557ade060001b612f01565b6155577f3a6ab5a6cb7c9708e209838bd508ea480fe4b0167718e1c4f21993f0f8b98c4560001b612f01565b81600f6000828254615569919061802a565b9250508190555061559c7f7b65c0fbf76192cecc7901350ea01e5f49432e3285d11b137b544d736992b12f60001b612f01565b6155c87fff2052d422c4ea66d02c5ea8361798c1f988b4b47dfcb33042e96cdc13061c3b60001b612f01565b7f0cf803a367f65f5e1b0fc4241c95f5ae2d3bebde2da728f5bb59a91252022bde848660020160009054906101000a900473ffffffffffffffffffffffffffffffffffffffff1689886040516156219493929190617976565b60405180910390a150505050506001600b819055505050565b6060816156697f548536891ec25f4e05e4545094d1d2baa690ef6ebce90d78f9f18f12c27885d960001b612f01565b6156957f8447120ca762eee67aec486ce297671b41e074d89e8a3a466d02510bff3438dd60001b612f01565b6156c17fe1aea303dec5775e670735f5e11454f0a4ae4c133242c8b274d2cd7b256a46e360001b612f01565b6156ed7f02f01cbf9cdb555ce67ecd79aa042c900935f17cc44f6872df8cdaa99038845060001b612f01565b6156f681615bad565b615735576040517f08c379a000000000000000000000000000000000000000000000000000000000815260040161572c90617b65565b60405180910390fd5b6157617f358b6504eccce87b0a31b08bbf5b9a76098eec94de86beb02bb9add1d87007f060001b612f01565b61578d7f4863389b6b8476e543272d680e2794db499929454df07eef463e6214e78e7ca360001b612f01565b6157b97f93fe30264af8cae4ab0743257903e029d274197ee3a1bf27097b2ee9abaa6f7960001b612f01565b6157e57f56ca7e53fe031861652ed13820a097e13e38fc177f4317e00476a24de718f47760001b612f01565b6158117f40fc0f16fc304f09494f74274eb0dc43c5188987a342d36e4d0a248094701b4160001b612f01565b6000600d600085815260200190815260200160002090506158547f24afd2d289fddce03f74badab1398fbee78f17c596472b6be2efbb50d54e470060001b612f01565b6158807ffc56e8c9a5a85da20be5052c80cd4a164a694cb6935e930667a1fae269457cfb60001b612f01565b8060000160009054906101000a900473ffffffffffffffffffffffffffffffffffffffff1673ffffffffffffffffffffffffffffffffffffffff1663c87b56dd82600801546040518263ffffffff1660e01b81526004016158e19190617f45565b60006040518083038186803b1580156158f957600080fd5b505afa15801561590d573d6000803e3d6000fd5b505050506040513d6000823e3d601f19601f8201168201806040525081019061593691906170e1565b92505050919050565b6000600560008473ffffffffffffffffffffffffffffffffffffffff1673ffffffffffffffffffffffffffffffffffffffff16815260200190815260200160002060008373ffffffffffffffffffffffffffffffffffffffff1673ffffffffffffffffffffffffffffffffffffffff16815260200190815260200160002060009054906101000a900460ff16905092915050565b6159db615c19565b73ffffffffffffffffffffffffffffffffffffffff166159f9613ca4565b73ffffffffffffffffffffffffffffffffffffffff1614615a4f576040517f08c379a0000000000000000000000000000000000000000000000000000000008152600401615a4690617d85565b60405180910390fd5b600073ffffffffffffffffffffffffffffffffffffffff168173ffffffffffffffffffffffffffffffffffffffff161415615abf576040517f08c379a0000000000000000000000000000000000000000000000000000000008152600401615ab690617b25565b60405180910390fd5b615ac8816160f1565b50565b60007f80ac58cd000000000000000000000000000000000000000000000000000000007bffffffffffffffffffffffffffffffffffffffffffffffffffffffff1916827bffffffffffffffffffffffffffffffffffffffffffffffffffffffff19161480615b9657507f5b5e139f000000000000000000000000000000000000000000000000000000007bffffffffffffffffffffffffffffffffffffffffffffffffffffffff1916827bffffffffffffffffffffffffffffffffffffffffffffffffffffffff1916145b80615ba65750615ba582616324565b5b9050919050565b60008073ffffffffffffffffffffffffffffffffffffffff166002600084815260200190815260200160002060009054906101000a900473ffffffffffffffffffffffffffffffffffffffff1673ffffffffffffffffffffffffffffffffffffffff1614159050919050565b600033905090565b816004600083815260200190815260200160002060006101000a81548173ffffffffffffffffffffffffffffffffffffffff021916908373ffffffffffffffffffffffffffffffffffffffff160217905550808273ffffffffffffffffffffffffffffffffffffffff16615c94836129c2565b73ffffffffffffffffffffffffffffffffffffffff167f8c5be1e5ebec7d5bd14f71427d1e84f3dd0314c0f7b2291e5b200ac8c7c3b92560405160405180910390a45050565b6000615ce582615bad565b615d24576040517f08c379a0000000000000000000000000000000000000000000000000000000008152600401615d1b90617c25565b60405180910390fd5b6000615d2f836129c2565b90508073ffffffffffffffffffffffffffffffffffffffff168473ffffffffffffffffffffffffffffffffffffffff161480615d9e57508373ffffffffffffffffffffffffffffffffffffffff16615d868461095f565b73ffffffffffffffffffffffffffffffffffffffff16145b80615daf5750615dae818561593f565b5b91505092915050565b615de47f5d687d8d86d3c58cbc842c8db98ba6ce349d207d227efeeecfc9fe6f4bde8ad060001b612f01565b615e107f357be8bc4b07bcdc2eaf363250c8021ae59f6637b6eb6d7d72de29ad6b97c68660001b612f01565b615e3c7f06a3d0a1e55c73adb3b274ca31a8e16f62763fe3c54928d3c826592cf0e9567b60001b612f01565b6040517f08c379a0000000000000000000000000000000000000000000000000000000008152600401615e6e90617c45565b60405180910390fd5b8273ffffffffffffffffffffffffffffffffffffffff16615e97826129c2565b73ffffffffffffffffffffffffffffffffffffffff1614615eed576040517f08c379a0000000000000000000000000000000000000000000000000000000008152600401615ee490617da5565b60405180910390fd5b600073ffffffffffffffffffffffffffffffffffffffff168273ffffffffffffffffffffffffffffffffffffffff161415615f5d576040517f08c379a0000000000000000000000000000000000000000000000000000000008152600401615f5490617bc5565b60405180910390fd5b615f6883838361638e565b615f73600082615c21565b6001600360008573ffffffffffffffffffffffffffffffffffffffff1673ffffffffffffffffffffffffffffffffffffffff1681526020019081526020016000206000828254615fc3919061810b565b925050819055506001600360008473ffffffffffffffffffffffffffffffffffffffff1673ffffffffffffffffffffffffffffffffffffffff168152602001908152602001600020600082825461601a919061802a565b92505081905550816002600083815260200190815260200160002060006101000a81548173ffffffffffffffffffffffffffffffffffffffff021916908373ffffffffffffffffffffffffffffffffffffffff160217905550808273ffffffffffffffffffffffffffffffffffffffff168473ffffffffffffffffffffffffffffffffffffffff167fddf252ad1be2c89b69c2b068fc378daa952ba7f163c4a11628f55a4df523b3ef60405160405180910390a4505050565b6160ed8282604051806020016040528060008152506164a2565b5050565b6000600a60009054906101000a900473ffffffffffffffffffffffffffffffffffffffff16905081600a60006101000a81548173ffffffffffffffffffffffffffffffffffffffff021916908373ffffffffffffffffffffffffffffffffffffffff1602179055508173ffffffffffffffffffffffffffffffffffffffff168173ffffffffffffffffffffffffffffffffffffffff167f8be0079c531659141344cd1fd0a4f28419497f9722a3daafe3b4186f6b6457e060405160405180910390a35050565b60006161c2826129c2565b90506161d08160008461638e565b6161db600083615c21565b6001600360008373ffffffffffffffffffffffffffffffffffffffff1673ffffffffffffffffffffffffffffffffffffffff168152602001908152602001600020600082825461622b919061810b565b925050819055506002600083815260200190815260200160002060006101000a81549073ffffffffffffffffffffffffffffffffffffffff021916905581600073ffffffffffffffffffffffffffffffffffffffff168273ffffffffffffffffffffffffffffffffffffffff167fddf252ad1be2c89b69c2b068fc378daa952ba7f163c4a11628f55a4df523b3ef60405160405180910390a45050565b6162d3848484615db8565b6162df848484846164fd565b61631e576040517f08c379a000000000000000000000000000000000000000000000000000000000815260040161631590617b05565b60405180910390fd5b50505050565b60007f01ffc9a7000000000000000000000000000000000000000000000000000000007bffffffffffffffffffffffffffffffffffffffffffffffffffffffff1916827bffffffffffffffffffffffffffffffffffffffffffffffffffffffff1916149050919050565b616399838383616694565b600073ffffffffffffffffffffffffffffffffffffffff168373ffffffffffffffffffffffffffffffffffffffff1614156163dc576163d781616699565b61641b565b8173ffffffffffffffffffffffffffffffffffffffff168373ffffffffffffffffffffffffffffffffffffffff161461641a5761641983826166e2565b5b5b600073ffffffffffffffffffffffffffffffffffffffff168273ffffffffffffffffffffffffffffffffffffffff16141561645e576164598161684f565b61649d565b8273ffffffffffffffffffffffffffffffffffffffff168273ffffffffffffffffffffffffffffffffffffffff161461649c5761649b8282616992565b5b5b505050565b6164ac8383616a11565b6164b960008484846164fd565b6164f8576040517f08c379a00000000000000000000000000000000000000000000000000000000081526004016164ef90617b05565b60405180910390fd5b505050565b600061651e8473ffffffffffffffffffffffffffffffffffffffff16616bdf565b15616687578373ffffffffffffffffffffffffffffffffffffffff1663150b7a02616547615c19565b8786866040518563ffffffff1660e01b8152600401616569949392919061792a565b602060405180830381600087803b15801561658357600080fd5b505af19250505080156165b457506040513d601f19601f820116820180604052508101906165b191906170b8565b60015b616637573d80600081146165e4576040519150601f19603f3d011682016040523d82523d6000602084013e6165e9565b606091505b5060008151141561662f576040517f08c379a000000000000000000000000000000000000000000000000000000000815260040161662690617b05565b60405180910390fd5b805181602001fd5b63150b7a0260e01b7bffffffffffffffffffffffffffffffffffffffffffffffffffffffff1916817bffffffffffffffffffffffffffffffffffffffffffffffffffffffff19161491505061668c565b600190505b949350505050565b505050565b6008805490506009600083815260200190815260200160002081905550600881908060018154018082558091505060019003906000526020600020016000909190919091505550565b600060016166ef84613b64565b6166f9919061810b565b90506000600760008481526020019081526020016000205490508181146167de576000600660008673ffffffffffffffffffffffffffffffffffffffff1673ffffffffffffffffffffffffffffffffffffffff168152602001908152602001600020600084815260200190815260200160002054905080600660008773ffffffffffffffffffffffffffffffffffffffff1673ffffffffffffffffffffffffffffffffffffffff168152602001908152602001600020600084815260200190815260200160002081905550816007600083815260200190815260200160002081905550505b6007600084815260200190815260200160002060009055600660008573ffffffffffffffffffffffffffffffffffffffff1673ffffffffffffffffffffffffffffffffffffffff16815260200190815260200160002060008381526020019081526020016000206000905550505050565b60006001600880549050616863919061810b565b90506000600960008481526020019081526020016000205490506000600883815481106168b9577f4e487b7100000000000000000000000000000000000000000000000000000000600052603260045260246000fd5b906000526020600020015490508060088381548110616901577f4e487b7100000000000000000000000000000000000000000000000000000000600052603260045260246000fd5b906000526020600020018190555081600960008381526020019081526020016000208190555060096000858152602001908152602001600020600090556008805480616976577f4e487b7100000000000000000000000000000000000000000000000000000000600052603160045260246000fd5b6001900381819060005260206000200160009055905550505050565b600061699d83613b64565b905081600660008573ffffffffffffffffffffffffffffffffffffffff1673ffffffffffffffffffffffffffffffffffffffff168152602001908152602001600020600083815260200190815260200160002081905550806007600084815260200190815260200160002081905550505050565b600073ffffffffffffffffffffffffffffffffffffffff168273ffffffffffffffffffffffffffffffffffffffff161415616a81576040517f08c379a0000000000000000000000000000000000000000000000000000000008152600401616a7890617d05565b60405180910390fd5b616a8a81615bad565b15616aca576040517f08c379a0000000000000000000000000000000000000000000000000000000008152600401616ac190617b45565b60405180910390fd5b616ad66000838361638e565b6001600360008473ffffffffffffffffffffffffffffffffffffffff1673ffffffffffffffffffffffffffffffffffffffff1681526020019081526020016000206000828254616b26919061802a565b92505081905550816002600083815260200190815260200160002060006101000a81548173ffffffffffffffffffffffffffffffffffffffff021916908373ffffffffffffffffffffffffffffffffffffffff160217905550808273ffffffffffffffffffffffffffffffffffffffff16600073ffffffffffffffffffffffffffffffffffffffff167fddf252ad1be2c89b69c2b068fc378daa952ba7f163c4a11628f55a4df523b3ef60405160405180910390a45050565b600080823b905060008111915050919050565b6000616c05616c0084617f85565b617f60565b905082815260208101848484011115616c1d57600080fd5b616c28848285618250565b509392505050565b6000616c43616c3e84617fb6565b617f60565b905082815260208101848484011115616c5b57600080fd5b616c6684828561825f565b509392505050565b600081359050616c7d81618cd0565b92915050565b600081519050616c9281618cd0565b92915050565b600081359050616ca781618ce7565b92915050565b600081359050616cbc81618cfe565b92915050565b600081359050616cd181618d15565b92915050565b600081519050616ce681618d15565b92915050565b60008083601f840112616cfe57600080fd5b8235905067ffffffffffffffff811115616d1757600080fd5b602083019150836001820283011115616d2f57600080fd5b9250929050565b600082601f830112616d4757600080fd5b8135616d57848260208601616bf2565b91505092915050565b600082601f830112616d7157600080fd5b8151616d81848260208601616c30565b91505092915050565b600081359050616d9981618d2c565b92915050565b600060208284031215616db157600080fd5b6000616dbf84828501616c6e565b91505092915050565b600060208284031215616dda57600080fd5b6000616de884828501616c83565b91505092915050565b60008060408385031215616e0457600080fd5b6000616e1285828601616c6e565b9250506020616e2385828601616c6e565b9150509250929050565b600080600060608486031215616e4257600080fd5b6000616e5086828701616c6e565b9350506020616e6186828701616c6e565b9250506040616e7286828701616d8a565b9150509250925092565b600080600080600060808688031215616e9457600080fd5b6000616ea288828901616c6e565b9550506020616eb388828901616c6e565b9450506040616ec488828901616d8a565b935050606086013567ffffffffffffffff811115616ee157600080fd5b616eed88828901616cec565b92509250509295509295909350565b60008060008060808587031215616f1257600080fd5b6000616f2087828801616c6e565b9450506020616f3187828801616c6e565b9350506040616f4287828801616d8a565b925050606085013567ffffffffffffffff811115616f5f57600080fd5b616f6b87828801616d36565b91505092959194509250565b60008060408385031215616f8a57600080fd5b6000616f9885828601616c6e565b9250506020616fa985828601616c98565b9150509250929050565b60008060408385031215616fc657600080fd5b6000616fd485828601616c6e565b9250506020616fe585828601616d8a565b9150509250929050565b600080600080600060a0868803121561700757600080fd5b600061701588828901616c6e565b955050602061702688828901616d8a565b945050604061703788828901616d8a565b935050606061704888828901616d8a565b925050608061705988828901616d8a565b9150509295509295909350565b60006020828403121561707857600080fd5b600061708684828501616cad565b91505092915050565b6000602082840312156170a157600080fd5b60006170af84828501616cc2565b91505092915050565b6000602082840312156170ca57600080fd5b60006170d884828501616cd7565b91505092915050565b6000602082840312156170f357600080fd5b600082015167ffffffffffffffff81111561710d57600080fd5b61711984828501616d60565b91505092915050565b60006020828403121561713457600080fd5b600061714284828501616d8a565b91505092915050565b6000806040838503121561715e57600080fd5b600061716c85828601616d8a565b925050602061717d85828601616c98565b9150509250929050565b6000806040838503121561719a57600080fd5b60006171a885828601616d8a565b92505060206171b985828601616d8a565b9150509250929050565b6171cc81618189565b82525050565b6171db81618189565b82525050565b6171ea8161819b565b82525050565b6171f9816181b1565b82525050565b600061720a82617fe7565b6172148185617ffd565b935061722481856020860161825f565b61722d8161842e565b840191505092915050565b6172418161821a565b82525050565b6172508161821a565b82525050565b61725f8161823e565b82525050565b600061727082617ff2565b61727a8185618019565b935061728a81856020860161825f565b6172938161842e565b840191505092915050565b60006172ab602b83618019565b91506172b68261844c565b604082019050919050565b60006172ce603283618019565b91506172d98261849b565b604082019050919050565b60006172f1602683618019565b91506172fc826184ea565b604082019050919050565b6000617314601c83618019565b915061731f82618539565b602082019050919050565b6000617337601b83618019565b915061734282618562565b602082019050919050565b600061735a601c83618019565b91506173658261858b565b602082019050919050565b600061737d601f83618019565b9150617388826185b4565b602082019050919050565b60006173a0602483618019565b91506173ab826185dd565b604082019050919050565b60006173c3601c83618019565b91506173ce8261862c565b602082019050919050565b60006173e6601983618019565b91506173f182618655565b602082019050919050565b6000617409602c83618019565b91506174148261867e565b604082019050919050565b600061742c601483618019565b9150617437826186cd565b602082019050919050565b600061744f603883618019565b915061745a826186f6565b604082019050919050565b6000617472602a83618019565b915061747d82618745565b604082019050919050565b6000617495602983618019565b91506174a082618794565b604082019050919050565b60006174b8602883618019565b91506174c3826187e3565b604082019050919050565b60006174db602583618019565b91506174e682618832565b604082019050919050565b60006174fe602083618019565b915061750982618881565b602082019050919050565b6000617521601a83618019565b915061752c826188aa565b602082019050919050565b6000617544602c83618019565b915061754f826188d3565b604082019050919050565b6000617567601583618019565b915061757282618922565b602082019050919050565b600061758a602083618019565b91506175958261894b565b602082019050919050565b60006175ad602983618019565b91506175b882618974565b604082019050919050565b60006175d0601383618019565b91506175db826189c3565b602082019050919050565b60006175f3601983618019565b91506175fe826189ec565b602082019050919050565b6000617616602183618019565b915061762182618a15565b604082019050919050565b6000617639601383618019565b915061764482618a64565b602082019050919050565b600061765c602283618019565b915061766782618a8d565b604082019050919050565b600061767f60008361800e565b915061768a82618adc565b600082019050919050565b60006176a2603183618019565b91506176ad82618adf565b604082019050919050565b60006176c5602283618019565b91506176d082618b2e565b604082019050919050565b60006176e8602383618019565b91506176f382618b7d565b604082019050919050565b600061770b602c83618019565b915061771682618bcc565b604082019050919050565b600061772e601c83618019565b915061773982618c1b565b602082019050919050565b6000617751601f83618019565b915061775c82618c44565b602082019050919050565b6000617774602583618019565b915061777f82618c6d565b604082019050919050565b610120820160008083015490506177a0816182de565b6177ad6000860182617238565b50600183015490506177be816182c4565b6177cb60208601826171c3565b50600283015490506177dc816182c4565b6177e960408601826171c3565b50600383015490506177fa816182f8565b61780760608601826178a5565b5060048301549050617818816182f8565b61782560808601826178a5565b5060058301549050617836816182f8565b61784360a08601826178a5565b5060068301549050617854816182f8565b61786160c08601826178a5565b5060078301549050617872816182f8565b61787f60e08601826178a5565b5060088301549050617890816182f8565b61789e6101008601826178a5565b5050505050565b6178ae81618210565b82525050565b6178bd81618210565b82525050565b60006178ce82617672565b9150819050919050565b60006020820190506178ed60008301846171d2565b92915050565b600060608201905061790860008301866171d2565b61791560208301856171d2565b61792260408301846178b4565b949350505050565b600060808201905061793f60008301876171d2565b61794c60208301866171d2565b61795960408301856178b4565b818103606083015261796b81846171ff565b905095945050505050565b60006101808201905061798c60008301876171d2565b61799960208301866171d2565b6179a660408301856178b4565b6179b3606083018461778a565b95945050505050565b60006040820190506179d160008301856171d2565b6179de60208301846178b4565b9392505050565b60006020820190506179fa60008301846171e1565b92915050565b6000602082019050617a1560008301846171f0565b92915050565b600061012082019050617a31600083018c617247565b617a3e602083018b6171d2565b617a4b604083018a6171d2565b617a5860608301896178b4565b617a6560808301886178b4565b617a7260a08301876178b4565b617a7f60c08301866178b4565b617a8c60e08301856178b4565b617a9a6101008301846178b4565b9a9950505050505050505050565b6000602082019050617abd6000830184617256565b92915050565b60006020820190508181036000830152617add8184617265565b905092915050565b60006020820190508181036000830152617afe8161729e565b9050919050565b60006020820190508181036000830152617b1e816172c1565b9050919050565b60006020820190508181036000830152617b3e816172e4565b9050919050565b60006020820190508181036000830152617b5e81617307565b9050919050565b60006020820190508181036000830152617b7e8161732a565b9050919050565b60006020820190508181036000830152617b9e8161734d565b9050919050565b60006020820190508181036000830152617bbe81617370565b9050919050565b60006020820190508181036000830152617bde81617393565b9050919050565b60006020820190508181036000830152617bfe816173b6565b9050919050565b60006020820190508181036000830152617c1e816173d9565b9050919050565b60006020820190508181036000830152617c3e816173fc565b9050919050565b60006020820190508181036000830152617c5e8161741f565b9050919050565b60006020820190508181036000830152617c7e81617442565b9050919050565b60006020820190508181036000830152617c9e81617465565b9050919050565b60006020820190508181036000830152617cbe81617488565b9050919050565b60006020820190508181036000830152617cde816174ab565b9050919050565b60006020820190508181036000830152617cfe816174ce565b9050919050565b60006020820190508181036000830152617d1e816174f1565b9050919050565b60006020820190508181036000830152617d3e81617514565b9050919050565b60006020820190508181036000830152617d5e81617537565b9050919050565b60006020820190508181036000830152617d7e8161755a565b9050919050565b60006020820190508181036000830152617d9e8161757d565b9050919050565b60006020820190508181036000830152617dbe816175a0565b9050919050565b60006020820190508181036000830152617dde816175c3565b9050919050565b60006020820190508181036000830152617dfe816175e6565b9050919050565b60006020820190508181036000830152617e1e81617609565b9050919050565b60006020820190508181036000830152617e3e8161762c565b9050919050565b60006020820190508181036000830152617e5e8161764f565b9050919050565b60006020820190508181036000830152617e7e81617695565b9050919050565b60006020820190508181036000830152617e9e816176b8565b9050919050565b60006020820190508181036000830152617ebe816176db565b9050919050565b60006020820190508181036000830152617ede816176fe565b9050919050565b60006020820190508181036000830152617efe81617721565b9050919050565b60006020820190508181036000830152617f1e81617744565b9050919050565b60006020820190508181036000830152617f3e81617767565b9050919050565b6000602082019050617f5a60008301846178b4565b92915050565b6000617f6a617f7b565b9050617f768282618312565b919050565b6000604051905090565b600067ffffffffffffffff821115617fa057617f9f6183ff565b5b617fa98261842e565b9050602081019050919050565b600067ffffffffffffffff821115617fd157617fd06183ff565b5b617fda8261842e565b9050602081019050919050565b600081519050919050565b600081519050919050565b600082825260208201905092915050565b600081905092915050565b600082825260208201905092915050565b600061803582618210565b915061804083618210565b9250827fffffffffffffffffffffffffffffffffffffffffffffffffffffffffffffffff0382111561807557618074618343565b5b828201905092915050565b600061808b82618210565b915061809683618210565b9250826180a6576180a5618372565b5b828204905092915050565b60006180bc82618210565b91506180c783618210565b9250817fffffffffffffffffffffffffffffffffffffffffffffffffffffffffffffffff0483118215151615618100576180ff618343565b5b828202905092915050565b600061811682618210565b915061812183618210565b92508282101561813457618133618343565b5b828203905092915050565b600073ffffffffffffffffffffffffffffffffffffffff82169050919050565b600073ffffffffffffffffffffffffffffffffffffffff82169050919050565b6000819050919050565b6000618194826181f0565b9050919050565b60008115159050919050565b6000819050919050565b60007fffffffff0000000000000000000000000000000000000000000000000000000082169050919050565b60008190506181eb82618cbc565b919050565b600073ffffffffffffffffffffffffffffffffffffffff82169050919050565b6000819050919050565b60006182258261822c565b9050919050565b6000618237826181f0565b9050919050565b6000618249826181dd565b9050919050565b82818337600083830152505050565b60005b8381101561827d578082015181840152602081019050618262565b8381111561828c576000848401525b50505050565b600060028204905060018216806182aa57607f821691505b602082108114156182be576182bd6183d0565b5b50919050565b60006182d76182d28361843f565b61813f565b9050919050565b60006182f16182ec8361843f565b61815f565b9050919050565b600061830b6183068361843f565b61817f565b9050919050565b61831b8261842e565b810181811067ffffffffffffffff8211171561833a576183396183ff565b5b80604052505050565b7f4e487b7100000000000000000000000000000000000000000000000000000000600052601160045260246000fd5b7f4e487b7100000000000000000000000000000000000000000000000000000000600052601260045260246000fd5b7f4e487b7100000000000000000000000000000000000000000000000000000000600052602160045260246000fd5b7f4e487b7100000000000000000000000000000000000000000000000000000000600052602260045260246000fd5b7f4e487b7100000000000000000000000000000000000000000000000000000000600052604160045260246000fd5b6000601f19601f8301169050919050565b60008160001c9050919050565b7f455243373231456e756d657261626c653a206f776e657220696e646578206f7560008201527f74206f6620626f756e6473000000000000000000000000000000000000000000602082015250565b7f4552433732313a207472616e7366657220746f206e6f6e20455243373231526560008201527f63656976657220696d706c656d656e7465720000000000000000000000000000602082015250565b7f4f776e61626c653a206e6577206f776e657220697320746865207a65726f206160008201527f6464726573730000000000000000000000000000000000000000000000000000602082015250565b7f4552433732313a20746f6b656e20616c7265616479206d696e74656400000000600082015250565b7f774e46543a20696e76616c6964207772617020746f6b656e2069640000000000600082015250565b7f774e46543a20696e76616c696420757066726f6e7420616d6f756e7400000000600082015250565b7f774e46543a20696e76616c6964206d61782072656e74616c20706572696f6400600082015250565b7f4552433732313a207472616e7366657220746f20746865207a65726f2061646460008201527f7265737300000000000000000000000000000000000000000000000000000000602082015250565b7f774e46543a206f6e6c792072656e742d6f766572656420746f6b656e00000000600082015250565b7f4552433732313a20617070726f766520746f2063616c6c657200000000000000600082015250565b7f4552433732313a206f70657261746f7220717565727920666f72206e6f6e657860008201527f697374656e7420746f6b656e0000000000000000000000000000000000000000602082015250565b7f774e46543a2063616e2774207472616e73666572000000000000000000000000600082015250565b7f4552433732313a20617070726f76652063616c6c6572206973206e6f74206f7760008201527f6e6572206e6f7220617070726f76656420666f7220616c6c0000000000000000602082015250565b7f4552433732313a2062616c616e636520717565727920666f7220746865207a6560008201527f726f206164647265737300000000000000000000000000000000000000000000602082015250565b7f4552433732313a206f776e657220717565727920666f72206e6f6e657869737460008201527f656e7420746f6b656e0000000000000000000000000000000000000000000000602082015250565b7f774e46543a2063616c6c6572206973206e6f7420746865206f776e6572206f6660008201527f20746865204e4654000000000000000000000000000000000000000000000000602082015250565b7f774e46543a206f6e6c7920746f6b656e206f776e65722063616e20756e72656760008201527f6973746572000000000000000000000000000000000000000000000000000000602082015250565b7f4552433732313a206d696e7420746f20746865207a65726f2061646472657373600082015250565b7f774e46543a2063616e6e6f7420726567697374657220774e4654000000000000600082015250565b7f4552433732313a20617070726f76656420717565727920666f72206e6f6e657860008201527f697374656e7420746f6b656e0000000000000000000000000000000000000000602082015250565b7f774e46543a207a65726f206461696c7920726174650000000000000000000000600082015250565b7f4f776e61626c653a2063616c6c6572206973206e6f7420746865206f776e6572600082015250565b7f4552433732313a207472616e73666572206f6620746f6b656e2074686174206960008201527f73206e6f74206f776e0000000000000000000000000000000000000000000000602082015250565b7f774e46543a20746f6b656e20696e2072656e7400000000000000000000000000600082015250565b7f774e46543a20696e76616c696420736572766963652066656500000000000000600082015250565b7f4552433732313a20617070726f76616c20746f2063757272656e74206f776e6560008201527f7200000000000000000000000000000000000000000000000000000000000000602082015250565b7f774e46543a206e6f742072657175657374656400000000000000000000000000600082015250565b7f774e46543a206f7574206f66206d6178696d616c2072656e74616c207065726960008201527f6f64000000000000000000000000000000000000000000000000000000000000602082015250565b50565b7f4552433732313a207472616e736665722063616c6c6572206973206e6f74206f60008201527f776e6572206e6f7220617070726f766564000000000000000000000000000000602082015250565b7f774e46543a206f7574206f66206d696e696d616c2072656e74616c207065726960008201527f6f64000000000000000000000000000000000000000000000000000000000000602082015250565b7f774e46543a2063616c6c6572206973206e6f742074686520746f6b656e206f7760008201527f6e65720000000000000000000000000000000000000000000000000000000000602082015250565b7f455243373231456e756d657261626c653a20676c6f62616c20696e646578206f60008201527f7574206f6620626f756e64730000000000000000000000000000000000000000602082015250565b7f774e46543a207a65726f206d696e2072656e74616c20706572696f6400000000600082015250565b7f5265656e7472616e637947756172643a207265656e7472616e742063616c6c00600082015250565b7f774e46543a2063616e6e6f7420756e7265676973746572206e6f6e206672656560008201527f2077726170000000000000000000000000000000000000000000000000000000602082015250565b60048110618ccd57618ccc6183a1565b5b50565b618cd981618189565b8114618ce457600080fd5b50565b618cf08161819b565b8114618cfb57600080fd5b50565b618d07816181a7565b8114618d1257600080fd5b50565b618d1e816181b1565b8114618d2957600080fd5b50565b618d3581618210565b8114618d4057600080fd5b5056fea26469706673582212203114eda2602f2fbd23d4159048888354698106d6904538858e466231034e9b6664736f6c63430008040033",
  "linkReferences": {},
  "deployedLinkReferences": {}
}