{
  "_format": "hh-sol-artifact-1",
  "contractName": "MockNFT",
  "sourceName": "contracts/mocks/MockNFT.sol",
  "abi": [
    {
      "inputs": [],
      "stateMutability": "nonpayable",
      "type": "constructor"
    },
    {
      "anonymous": false,
      "inputs": [
        {
          "indexed": true,
          "internalType": "address",
          "name": "owner",
          "type": "address"
        },
        {
          "indexed": true,
          "internalType": "address",
          "name": "approved",
          "type": "address"
        },
        {
          "indexed": true,
          "internalType": "uint256",
          "name": "tokenId",
          "type": "uint256"
        }
      ],
      "name": "Approval",
      "type": "event"
    },
    {
      "anonymous": false,
      "inputs": [
        {
          "indexed": true,
          "internalType": "address",
          "name": "owner",
          "type": "address"
        },
        {
          "indexed": true,
          "internalType": "address",
          "name": "operator",
          "type": "address"
        },
        {
          "indexed": false,
          "internalType": "bool",
          "name": "approved",
          "type": "bool"
        }
      ],
      "name": "ApprovalForAll",
      "type": "event"
    },
    {
      "anonymous": false,
      "inputs": [
        {
          "indexed": true,
          "internalType": "address",
          "name": "from",
          "type": "address"
        },
        {
          "indexed": true,
          "internalType": "address",
          "name": "to",
          "type": "address"
        },
        {
          "indexed": true,
          "internalType": "uint256",
          "name": "tokenId",
          "type": "uint256"
        }
      ],
      "name": "Transfer",
      "type": "event"
    },
    {
      "inputs": [
        {
          "internalType": "address",
          "name": "to",
          "type": "address"
        },
        {
          "internalType": "uint256",
          "name": "tokenId",
          "type": "uint256"
        }
      ],
      "name": "approve",
      "outputs": [],
      "stateMutability": "nonpayable",
      "type": "function"
    },
    {
      "inputs": [
        {
          "internalType": "address",
          "name": "owner",
          "type": "address"
        }
      ],
      "name": "balanceOf",
      "outputs": [
        {
          "internalType": "uint256",
          "name": "",
          "type": "uint256"
        }
      ],
      "stateMutability": "view",
      "type": "function"
    },
    {
      "inputs": [
        {
          "internalType": "bytes32",
          "name": "c__0x810a5cbd",
          "type": "bytes32"
        }
      ],
      "name": "c_0x810a5cbd",
      "outputs": [],
      "stateMutability": "pure",
      "type": "function"
    },
    {
      "inputs": [
        {
          "internalType": "uint256",
          "name": "tokenId",
          "type": "uint256"
        }
      ],
      "name": "getApproved",
      "outputs": [
        {
          "internalType": "address",
          "name": "",
          "type": "address"
        }
      ],
      "stateMutability": "view",
      "type": "function"
    },
    {
      "inputs": [
        {
          "internalType": "address",
          "name": "owner",
          "type": "address"
        },
        {
          "internalType": "address",
          "name": "operator",
          "type": "address"
        }
      ],
      "name": "isApprovedForAll",
      "outputs": [
        {
          "internalType": "bool",
          "name": "",
          "type": "bool"
        }
      ],
      "stateMutability": "view",
      "type": "function"
    },
    {
      "inputs": [
        {
          "internalType": "address",
          "name": "to",
          "type": "address"
        },
        {
          "internalType": "uint256",
          "name": "tokenId",
          "type": "uint256"
        }
      ],
      "name": "mint",
      "outputs": [],
      "stateMutability": "nonpayable",
      "type": "function"
    },
    {
      "inputs": [],
      "name": "name",
      "outputs": [
        {
          "internalType": "string",
          "name": "",
          "type": "string"
        }
      ],
      "stateMutability": "view",
      "type": "function"
    },
    {
      "inputs": [
        {
          "internalType": "uint256",
          "name": "tokenId",
          "type": "uint256"
        }
      ],
      "name": "ownerOf",
      "outputs": [
        {
          "internalType": "address",
          "name": "",
          "type": "address"
        }
      ],
      "stateMutability": "view",
      "type": "function"
    },
    {
      "inputs": [
        {
          "internalType": "address",
          "name": "from",
          "type": "address"
        },
        {
          "internalType": "address",
          "name": "to",
          "type": "address"
        },
        {
          "internalType": "uint256",
          "name": "tokenId",
          "type": "uint256"
        }
      ],
      "name": "safeTransferFrom",
      "outputs": [],
      "stateMutability": "nonpayable",
      "type": "function"
    },
    {
      "inputs": [
        {
          "internalType": "address",
          "name": "from",
          "type": "address"
        },
        {
          "internalType": "address",
          "name": "to",
          "type": "address"
        },
        {
          "internalType": "uint256",
          "name": "tokenId",
          "type": "uint256"
        },
        {
          "internalType": "bytes",
          "name": "_data",
          "type": "bytes"
        }
      ],
      "name": "safeTransferFrom",
      "outputs": [],
      "stateMutability": "nonpayable",
      "type": "function"
    },
    {
      "inputs": [
        {
          "internalType": "address",
          "name": "operator",
          "type": "address"
        },
        {
          "internalType": "bool",
          "name": "approved",
          "type": "bool"
        }
      ],
      "name": "setApprovalForAll",
      "outputs": [],
      "stateMutability": "nonpayable",
      "type": "function"
    },
    {
      "inputs": [
        {
          "internalType": "bytes4",
          "name": "interfaceId",
          "type": "bytes4"
        }
      ],
      "name": "supportsInterface",
      "outputs": [
        {
          "internalType": "bool",
          "name": "",
          "type": "bool"
        }
      ],
      "stateMutability": "view",
      "type": "function"
    },
    {
      "inputs": [],
      "name": "symbol",
      "outputs": [
        {
          "internalType": "string",
          "name": "",
          "type": "string"
        }
      ],
      "stateMutability": "view",
      "type": "function"
    },
    {
      "inputs": [
        {
          "internalType": "uint256",
          "name": "tokenId",
          "type": "uint256"
        }
      ],
      "name": "tokenURI",
      "outputs": [
        {
          "internalType": "string",
          "name": "",
          "type": "string"
        }
      ],
      "stateMutability": "view",
      "type": "function"
    },
    {
      "inputs": [
        {
          "internalType": "address",
          "name": "from",
          "type": "address"
        },
        {
          "internalType": "address",
          "name": "to",
          "type": "address"
        },
        {
          "internalType": "uint256",
          "name": "tokenId",
          "type": "uint256"
        }
      ],
      "name": "transferFrom",
      "outputs": [],
      "stateMutability": "nonpayable",
      "type": "function"
    }
  ],
  "bytecode": "0x60806040523480156200001157600080fd5b506040518060400160405280600781526020017f4d6f636b4e4654000000000000000000000000000000000000000000000000008152506040518060400160405280600781526020017f4d6f636b4e465400000000000000000000000000000000000000000000000000815250816000908051906020019062000096929190620000ef565b508060019080519060200190620000af929190620000ef565b505050620000e67f41fa8bc4892c8f5dba7868aa2630ff250ada5bc4a2f48b331cadf5b89cc527c460001b620000ec60201b60201c565b62000204565b50565b828054620000fd906200019f565b90600052602060002090601f0160209004810192826200012157600085556200016d565b82601f106200013c57805160ff19168380011785556200016d565b828001600101855582156200016d579182015b828111156200016c5782518255916020019190600101906200014f565b5b5090506200017c919062000180565b5090565b5b808211156200019b57600081600090555060010162000181565b5090565b60006002820490506001821680620001b857607f821691505b60208210811415620001cf57620001ce620001d5565b5b50919050565b7f4e487b7100000000000000000000000000000000000000000000000000000000600052602260045260246000fd5b61281680620002146000396000f3fe608060405234801561001057600080fd5b50600436106100f55760003560e01c80636352211e11610097578063b88d4fde11610066578063b88d4fde14610282578063c87b56dd1461029e578063e3fe3a28146102ce578063e985e9c5146102ea576100f5565b80636352211e146101e857806370a082311461021857806395d89b4114610248578063a22cb46514610266576100f5565b8063095ea7b3116100d3578063095ea7b31461017857806323b872dd1461019457806340c10f19146101b057806342842e0e146101cc576100f5565b806301ffc9a7146100fa57806306fdde031461012a578063081812fc14610148575b600080fd5b610114600480360381019061010f91906119f7565b61031a565b6040516101219190611db7565b60405180910390f35b6101326103fc565b60405161013f9190611dd2565b60405180910390f35b610162600480360381019061015d9190611a49565b61048e565b60405161016f9190611d50565b60405180910390f35b610192600480360381019061018d9190611992565b610513565b005b6101ae60048036038101906101a9919061188c565b61062b565b005b6101ca60048036038101906101c59190611992565b61068b565b005b6101e660048036038101906101e1919061188c565b61071d565b005b61020260048036038101906101fd9190611a49565b61073d565b60405161020f9190611d50565b60405180910390f35b610232600480360381019061022d9190611827565b6107ef565b60405161023f9190611fb4565b60405180910390f35b6102506108a7565b60405161025d9190611dd2565b60405180910390f35b610280600480360381019061027b9190611956565b610939565b005b61029c600480360381019061029791906118db565b610aba565b005b6102b860048036038101906102b39190611a49565b610b1c565b6040516102c59190611dd2565b60405180910390f35b6102e860048036038101906102e391906119ce565b610bc3565b005b61030460048036038101906102ff9190611850565b610bc6565b6040516103119190611db7565b60405180910390f35b60007f80ac58cd000000000000000000000000000000000000000000000000000000007bffffffffffffffffffffffffffffffffffffffffffffffffffffffff1916827bffffffffffffffffffffffffffffffffffffffffffffffffffffffff191614806103e557507f5b5e139f000000000000000000000000000000000000000000000000000000007bffffffffffffffffffffffffffffffffffffffffffffffffffffffff1916827bffffffffffffffffffffffffffffffffffffffffffffffffffffffff1916145b806103f557506103f482610c5a565b5b9050919050565b60606000805461040b906121e3565b80601f0160208091040260200160405190810160405280929190818152602001828054610437906121e3565b80156104845780601f1061045957610100808354040283529160200191610484565b820191906000526020600020905b81548152906001019060200180831161046757829003601f168201915b5050505050905090565b600061049982610cc4565b6104d8576040517f08c379a00000000000000000000000000000000000000000000000000000000081526004016104cf90611f14565b60405180910390fd5b6004600083815260200190815260200160002060009054906101000a900473ffffffffffffffffffffffffffffffffffffffff169050919050565b600061051e8261073d565b90508073ffffffffffffffffffffffffffffffffffffffff168373ffffffffffffffffffffffffffffffffffffffff16141561058f576040517f08c379a000000000000000000000000000000000000000000000000000000000815260040161058690611f74565b60405180910390fd5b8073ffffffffffffffffffffffffffffffffffffffff166105ae610d30565b73ffffffffffffffffffffffffffffffffffffffff1614806105dd57506105dc816105d7610d30565b610bc6565b5b61061c576040517f08c379a000000000000000000000000000000000000000000000000000000000815260040161061390611e94565b60405180910390fd5b6106268383610d38565b505050565b61063c610636610d30565b82610df1565b61067b576040517f08c379a000000000000000000000000000000000000000000000000000000000815260040161067290611f94565b60405180910390fd5b610686838383610ecf565b505050565b6106b77f27ba2786d60a944cdc324465fd8ccd0207a7179ef4802d9e479b22b93dbc9fc460001b610bc3565b6106e37fb0dd61f9187e3632a314bbbc8a2cc5807259135d27f7f10a4ac47d8d4be3e76c60001b610bc3565b61070f7f2cca79ada72e58bd2c0d2ed6f088d585b0cafb0cd8cb63490ecbb31e296878d760001b610bc3565b610719828261112b565b5050565b61073883838360405180602001604052806000815250610aba565b505050565b6000806002600084815260200190815260200160002060009054906101000a900473ffffffffffffffffffffffffffffffffffffffff169050600073ffffffffffffffffffffffffffffffffffffffff168173ffffffffffffffffffffffffffffffffffffffff1614156107e6576040517f08c379a00000000000000000000000000000000000000000000000000000000081526004016107dd90611ed4565b60405180910390fd5b80915050919050565b60008073ffffffffffffffffffffffffffffffffffffffff168273ffffffffffffffffffffffffffffffffffffffff161415610860576040517f08c379a000000000000000000000000000000000000000000000000000000000815260040161085790611eb4565b60405180910390fd5b600360008373ffffffffffffffffffffffffffffffffffffffff1673ffffffffffffffffffffffffffffffffffffffff168152602001908152602001600020549050919050565b6060600180546108b6906121e3565b80601f01602080910402602001604051908101604052809291908181526020018280546108e2906121e3565b801561092f5780601f106109045761010080835404028352916020019161092f565b820191906000526020600020905b81548152906001019060200180831161091257829003601f168201915b5050505050905090565b610941610d30565b73ffffffffffffffffffffffffffffffffffffffff168273ffffffffffffffffffffffffffffffffffffffff1614156109af576040517f08c379a00000000000000000000000000000000000000000000000000000000081526004016109a690611e54565b60405180910390fd5b80600560006109bc610d30565b73ffffffffffffffffffffffffffffffffffffffff1673ffffffffffffffffffffffffffffffffffffffff16815260200190815260200160002060008473ffffffffffffffffffffffffffffffffffffffff1673ffffffffffffffffffffffffffffffffffffffff16815260200190815260200160002060006101000a81548160ff0219169083151502179055508173ffffffffffffffffffffffffffffffffffffffff16610a69610d30565b73ffffffffffffffffffffffffffffffffffffffff167f17307eab39ab6107e8899845ad3d59bd9653f200f220920489ca2b5937696c3183604051610aae9190611db7565b60405180910390a35050565b610acb610ac5610d30565b83610df1565b610b0a576040517f08c379a0000000000000000000000000000000000000000000000000000000008152600401610b0190611f94565b60405180910390fd5b610b1684848484611149565b50505050565b6060610b2782610cc4565b610b66576040517f08c379a0000000000000000000000000000000000000000000000000000000008152600401610b5d90611f54565b60405180910390fd5b6000610b706111a5565b90506000815111610b905760405180602001604052806000815250610bbb565b80610b9a846111bc565b604051602001610bab929190611d2c565b6040516020818303038152906040525b915050919050565b50565b6000600560008473ffffffffffffffffffffffffffffffffffffffff1673ffffffffffffffffffffffffffffffffffffffff16815260200190815260200160002060008373ffffffffffffffffffffffffffffffffffffffff1673ffffffffffffffffffffffffffffffffffffffff16815260200190815260200160002060009054906101000a900460ff16905092915050565b60007f01ffc9a7000000000000000000000000000000000000000000000000000000007bffffffffffffffffffffffffffffffffffffffffffffffffffffffff1916827bffffffffffffffffffffffffffffffffffffffffffffffffffffffff1916149050919050565b60008073ffffffffffffffffffffffffffffffffffffffff166002600084815260200190815260200160002060009054906101000a900473ffffffffffffffffffffffffffffffffffffffff1673ffffffffffffffffffffffffffffffffffffffff1614159050919050565b600033905090565b816004600083815260200190815260200160002060006101000a81548173ffffffffffffffffffffffffffffffffffffffff021916908373ffffffffffffffffffffffffffffffffffffffff160217905550808273ffffffffffffffffffffffffffffffffffffffff16610dab8361073d565b73ffffffffffffffffffffffffffffffffffffffff167f8c5be1e5ebec7d5bd14f71427d1e84f3dd0314c0f7b2291e5b200ac8c7c3b92560405160405180910390a45050565b6000610dfc82610cc4565b610e3b576040517f08c379a0000000000000000000000000000000000000000000000000000000008152600401610e3290611e74565b60405180910390fd5b6000610e468361073d565b90508073ffffffffffffffffffffffffffffffffffffffff168473ffffffffffffffffffffffffffffffffffffffff161480610eb557508373ffffffffffffffffffffffffffffffffffffffff16610e9d8461048e565b73ffffffffffffffffffffffffffffffffffffffff16145b80610ec65750610ec58185610bc6565b5b91505092915050565b8273ffffffffffffffffffffffffffffffffffffffff16610eef8261073d565b73ffffffffffffffffffffffffffffffffffffffff1614610f45576040517f08c379a0000000000000000000000000000000000000000000000000000000008152600401610f3c90611f34565b60405180910390fd5b600073ffffffffffffffffffffffffffffffffffffffff168273ffffffffffffffffffffffffffffffffffffffff161415610fb5576040517f08c379a0000000000000000000000000000000000000000000000000000000008152600401610fac90611e34565b60405180910390fd5b610fc0838383611369565b610fcb600082610d38565b6001600360008573ffffffffffffffffffffffffffffffffffffffff1673ffffffffffffffffffffffffffffffffffffffff168152602001908152602001600020600082825461101b91906120ef565b925050819055506001600360008473ffffffffffffffffffffffffffffffffffffffff1673ffffffffffffffffffffffffffffffffffffffff16815260200190815260200160002060008282546110729190612068565b92505081905550816002600083815260200190815260200160002060006101000a81548173ffffffffffffffffffffffffffffffffffffffff021916908373ffffffffffffffffffffffffffffffffffffffff160217905550808273ffffffffffffffffffffffffffffffffffffffff168473ffffffffffffffffffffffffffffffffffffffff167fddf252ad1be2c89b69c2b068fc378daa952ba7f163c4a11628f55a4df523b3ef60405160405180910390a4505050565b61114582826040518060200160405280600081525061136e565b5050565b611154848484610ecf565b611160848484846113c9565b61119f576040517f08c379a000000000000000000000000000000000000000000000000000000000815260040161119690611df4565b60405180910390fd5b50505050565b606060405180602001604052806000815250905090565b60606000821415611204576040518060400160405280600181526020017f30000000000000000000000000000000000000000000000000000000000000008152509050611364565b600082905060005b6000821461123657808061121f90612246565b915050600a8261122f91906120be565b915061120c565b60008167ffffffffffffffff811115611278577f4e487b7100000000000000000000000000000000000000000000000000000000600052604160045260246000fd5b6040519080825280601f01601f1916602001820160405280156112aa5781602001600182028036833780820191505090505b5090505b6000851461135d576001826112c391906120ef565b9150600a856112d2919061228f565b60306112de9190612068565b60f81b81838151811061131a577f4e487b7100000000000000000000000000000000000000000000000000000000600052603260045260246000fd5b60200101907effffffffffffffffffffffffffffffffffffffffffffffffffffffffffffff1916908160001a905350600a8561135691906120be565b94506112ae565b8093505050505b919050565b505050565b6113788383611560565b61138560008484846113c9565b6113c4576040517f08c379a00000000000000000000000000000000000000000000000000000000081526004016113bb90611df4565b60405180910390fd5b505050565b60006113ea8473ffffffffffffffffffffffffffffffffffffffff1661172e565b15611553578373ffffffffffffffffffffffffffffffffffffffff1663150b7a02611413610d30565b8786866040518563ffffffff1660e01b81526004016114359493929190611d6b565b602060405180830381600087803b15801561144f57600080fd5b505af192505050801561148057506040513d601f19601f8201168201806040525081019061147d9190611a20565b60015b611503573d80600081146114b0576040519150601f19603f3d011682016040523d82523d6000602084013e6114b5565b606091505b506000815114156114fb576040517f08c379a00000000000000000000000000000000000000000000000000000000081526004016114f290611df4565b60405180910390fd5b805181602001fd5b63150b7a0260e01b7bffffffffffffffffffffffffffffffffffffffffffffffffffffffff1916817bffffffffffffffffffffffffffffffffffffffffffffffffffffffff191614915050611558565b600190505b949350505050565b600073ffffffffffffffffffffffffffffffffffffffff168273ffffffffffffffffffffffffffffffffffffffff1614156115d0576040517f08c379a00000000000000000000000000000000000000000000000000000000081526004016115c790611ef4565b60405180910390fd5b6115d981610cc4565b15611619576040517f08c379a000000000000000000000000000000000000000000000000000000000815260040161161090611e14565b60405180910390fd5b61162560008383611369565b6001600360008473ffffffffffffffffffffffffffffffffffffffff1673ffffffffffffffffffffffffffffffffffffffff16815260200190815260200160002060008282546116759190612068565b92505081905550816002600083815260200190815260200160002060006101000a81548173ffffffffffffffffffffffffffffffffffffffff021916908373ffffffffffffffffffffffffffffffffffffffff160217905550808273ffffffffffffffffffffffffffffffffffffffff16600073ffffffffffffffffffffffffffffffffffffffff167fddf252ad1be2c89b69c2b068fc378daa952ba7f163c4a11628f55a4df523b3ef60405160405180910390a45050565b600080823b905060008111915050919050565b600061175461174f84611ff4565b611fcf565b90508281526020810184848401111561176c57600080fd5b6117778482856121a1565b509392505050565b60008135905061178e8161276d565b92915050565b6000813590506117a381612784565b92915050565b6000813590506117b88161279b565b92915050565b6000813590506117cd816127b2565b92915050565b6000815190506117e2816127b2565b92915050565b600082601f8301126117f957600080fd5b8135611809848260208601611741565b91505092915050565b600081359050611821816127c9565b92915050565b60006020828403121561183957600080fd5b60006118478482850161177f565b91505092915050565b6000806040838503121561186357600080fd5b60006118718582860161177f565b92505060206118828582860161177f565b9150509250929050565b6000806000606084860312156118a157600080fd5b60006118af8682870161177f565b93505060206118c08682870161177f565b92505060406118d186828701611812565b9150509250925092565b600080600080608085870312156118f157600080fd5b60006118ff8782880161177f565b94505060206119108782880161177f565b935050604061192187828801611812565b925050606085013567ffffffffffffffff81111561193e57600080fd5b61194a878288016117e8565b91505092959194509250565b6000806040838503121561196957600080fd5b60006119778582860161177f565b925050602061198885828601611794565b9150509250929050565b600080604083850312156119a557600080fd5b60006119b38582860161177f565b92505060206119c485828601611812565b9150509250929050565b6000602082840312156119e057600080fd5b60006119ee848285016117a9565b91505092915050565b600060208284031215611a0957600080fd5b6000611a17848285016117be565b91505092915050565b600060208284031215611a3257600080fd5b6000611a40848285016117d3565b91505092915050565b600060208284031215611a5b57600080fd5b6000611a6984828501611812565b91505092915050565b611a7b81612123565b82525050565b611a8a81612135565b82525050565b6000611a9b82612025565b611aa5818561203b565b9350611ab58185602086016121b0565b611abe8161237c565b840191505092915050565b6000611ad482612030565b611ade818561204c565b9350611aee8185602086016121b0565b611af78161237c565b840191505092915050565b6000611b0d82612030565b611b17818561205d565b9350611b278185602086016121b0565b80840191505092915050565b6000611b4060328361204c565b9150611b4b8261238d565b604082019050919050565b6000611b63601c8361204c565b9150611b6e826123dc565b602082019050919050565b6000611b8660248361204c565b9150611b9182612405565b604082019050919050565b6000611ba960198361204c565b9150611bb482612454565b602082019050919050565b6000611bcc602c8361204c565b9150611bd78261247d565b604082019050919050565b6000611bef60388361204c565b9150611bfa826124cc565b604082019050919050565b6000611c12602a8361204c565b9150611c1d8261251b565b604082019050919050565b6000611c3560298361204c565b9150611c408261256a565b604082019050919050565b6000611c5860208361204c565b9150611c63826125b9565b602082019050919050565b6000611c7b602c8361204c565b9150611c86826125e2565b604082019050919050565b6000611c9e60298361204c565b9150611ca982612631565b604082019050919050565b6000611cc1602f8361204c565b9150611ccc82612680565b604082019050919050565b6000611ce460218361204c565b9150611cef826126cf565b604082019050919050565b6000611d0760318361204c565b9150611d128261271e565b604082019050919050565b611d2681612197565b82525050565b6000611d388285611b02565b9150611d448284611b02565b91508190509392505050565b6000602082019050611d656000830184611a72565b92915050565b6000608082019050611d806000830187611a72565b611d8d6020830186611a72565b611d9a6040830185611d1d565b8181036060830152611dac8184611a90565b905095945050505050565b6000602082019050611dcc6000830184611a81565b92915050565b60006020820190508181036000830152611dec8184611ac9565b905092915050565b60006020820190508181036000830152611e0d81611b33565b9050919050565b60006020820190508181036000830152611e2d81611b56565b9050919050565b60006020820190508181036000830152611e4d81611b79565b9050919050565b60006020820190508181036000830152611e6d81611b9c565b9050919050565b60006020820190508181036000830152611e8d81611bbf565b9050919050565b60006020820190508181036000830152611ead81611be2565b9050919050565b60006020820190508181036000830152611ecd81611c05565b9050919050565b60006020820190508181036000830152611eed81611c28565b9050919050565b60006020820190508181036000830152611f0d81611c4b565b9050919050565b60006020820190508181036000830152611f2d81611c6e565b9050919050565b60006020820190508181036000830152611f4d81611c91565b9050919050565b60006020820190508181036000830152611f6d81611cb4565b9050919050565b60006020820190508181036000830152611f8d81611cd7565b9050919050565b60006020820190508181036000830152611fad81611cfa565b9050919050565b6000602082019050611fc96000830184611d1d565b92915050565b6000611fd9611fea565b9050611fe58282612215565b919050565b6000604051905090565b600067ffffffffffffffff82111561200f5761200e61234d565b5b6120188261237c565b9050602081019050919050565b600081519050919050565b600081519050919050565b600082825260208201905092915050565b600082825260208201905092915050565b600081905092915050565b600061207382612197565b915061207e83612197565b9250827fffffffffffffffffffffffffffffffffffffffffffffffffffffffffffffffff038211156120b3576120b26122c0565b5b828201905092915050565b60006120c982612197565b91506120d483612197565b9250826120e4576120e36122ef565b5b828204905092915050565b60006120fa82612197565b915061210583612197565b925082821015612118576121176122c0565b5b828203905092915050565b600061212e82612177565b9050919050565b60008115159050919050565b6000819050919050565b60007fffffffff0000000000000000000000000000000000000000000000000000000082169050919050565b600073ffffffffffffffffffffffffffffffffffffffff82169050919050565b6000819050919050565b82818337600083830152505050565b60005b838110156121ce5780820151818401526020810190506121b3565b838111156121dd576000848401525b50505050565b600060028204905060018216806121fb57607f821691505b6020821081141561220f5761220e61231e565b5b50919050565b61221e8261237c565b810181811067ffffffffffffffff8211171561223d5761223c61234d565b5b80604052505050565b600061225182612197565b91507fffffffffffffffffffffffffffffffffffffffffffffffffffffffffffffffff821415612284576122836122c0565b5b600182019050919050565b600061229a82612197565b91506122a583612197565b9250826122b5576122b46122ef565b5b828206905092915050565b7f4e487b7100000000000000000000000000000000000000000000000000000000600052601160045260246000fd5b7f4e487b7100000000000000000000000000000000000000000000000000000000600052601260045260246000fd5b7f4e487b7100000000000000000000000000000000000000000000000000000000600052602260045260246000fd5b7f4e487b7100000000000000000000000000000000000000000000000000000000600052604160045260246000fd5b6000601f19601f8301169050919050565b7f4552433732313a207472616e7366657220746f206e6f6e20455243373231526560008201527f63656976657220696d706c656d656e7465720000000000000000000000000000602082015250565b7f4552433732313a20746f6b656e20616c7265616479206d696e74656400000000600082015250565b7f4552433732313a207472616e7366657220746f20746865207a65726f2061646460008201527f7265737300000000000000000000000000000000000000000000000000000000602082015250565b7f4552433732313a20617070726f766520746f2063616c6c657200000000000000600082015250565b7f4552433732313a206f70657261746f7220717565727920666f72206e6f6e657860008201527f697374656e7420746f6b656e0000000000000000000000000000000000000000602082015250565b7f4552433732313a20617070726f76652063616c6c6572206973206e6f74206f7760008201527f6e6572206e6f7220617070726f76656420666f7220616c6c0000000000000000602082015250565b7f4552433732313a2062616c616e636520717565727920666f7220746865207a6560008201527f726f206164647265737300000000000000000000000000000000000000000000602082015250565b7f4552433732313a206f776e657220717565727920666f72206e6f6e657869737460008201527f656e7420746f6b656e0000000000000000000000000000000000000000000000602082015250565b7f4552433732313a206d696e7420746f20746865207a65726f2061646472657373600082015250565b7f4552433732313a20617070726f76656420717565727920666f72206e6f6e657860008201527f697374656e7420746f6b656e0000000000000000000000000000000000000000602082015250565b7f4552433732313a207472616e73666572206f6620746f6b656e2074686174206960008201527f73206e6f74206f776e0000000000000000000000000000000000000000000000602082015250565b7f4552433732314d657461646174613a2055524920717565727920666f72206e6f60008201527f6e6578697374656e7420746f6b656e0000000000000000000000000000000000602082015250565b7f4552433732313a20617070726f76616c20746f2063757272656e74206f776e6560008201527f7200000000000000000000000000000000000000000000000000000000000000602082015250565b7f4552433732313a207472616e736665722063616c6c6572206973206e6f74206f60008201527f776e6572206e6f7220617070726f766564000000000000000000000000000000602082015250565b61277681612123565b811461278157600080fd5b50565b61278d81612135565b811461279857600080fd5b50565b6127a481612141565b81146127af57600080fd5b50565b6127bb8161214b565b81146127c657600080fd5b50565b6127d281612197565b81146127dd57600080fd5b5056fea26469706673582212209998261a7171bde16ca5eadc17d475438c32a3cd2d35c390bf4a3c827ef6d5f364736f6c63430008040033",
  "linkReferences": {},
  "deployedLinkReferences": {}
}